{"contracts/ConstantSumAMM.sol":{"AnyxSwapCS":{"abi":[{"inputs":[{"internalType":"address","name":"_tokenA","type":"address"},{"internalType":"address","name":"_tokenB","type":"address"}],"stateMutability":"nonpayable","type":"constructor"},{"inputs":[{"internalType":"uint256","name":"amountA","type":"uint256"},{"internalType":"uint256","name":"amountB","type":"uint256"}],"name":"addLiquidity","outputs":[{"internalType":"uint256","name":"shares","type":"uint256"}],"stateMutability":"nonpayable","type":"function"},{"inputs":[{"internalType":"address","name":"","type":"address"}],"name":"individualShares","outputs":[{"internalType":"uint256","name":"","type":"uint256"}],"stateMutability":"view","type":"function"},{"inputs":[],"name":"removeLiquidity","outputs":[],"stateMutability":"nonpayable","type":"function"},{"inputs":[],"name":"s_reserveA","outputs":[{"internalType":"uint256","name":"","type":"uint256"}],"stateMutability":"view","type":"function"},{"inputs":[],"name":"s_reserveB","outputs":[{"internalType":"uint256","name":"","type":"uint256"}],"stateMutability":"view","type":"function"},{"inputs":[],"name":"s_totalSharesMinted","outputs":[{"internalType":"uint256","name":"","type":"uint256"}],"stateMutability":"view","type":"function"},{"inputs":[{"internalType":"address","name":"_tokenIn","type":"address"},{"internalType":"uint256","name":"_amountIn","type":"uint256"}],"name":"swapTokens","outputs":[],"stateMutability":"nonpayable","type":"function"},{"inputs":[],"name":"tokenA","outputs":[{"internalType":"contract IERC20","name":"","type":"address"}],"stateMutability":"view","type":"function"},{"inputs":[],"name":"tokenB","outputs":[{"internalType":"contract IERC20","name":"","type":"address"}],"stateMutability":"view","type":"function"}],"evm":{"bytecode":{"linkReferences":{},"object":"60c06040523480156200001157600080fd5b50604051620016e6380380620016e6833981810160405281019062000037919062000111565b8173ffffffffffffffffffffffffffffffffffffffff1660808173ffffffffffffffffffffffffffffffffffffffff16815250508073ffffffffffffffffffffffffffffffffffffffff1660a08173ffffffffffffffffffffffffffffffffffffffff1681525050505062000158565b600080fd5b600073ffffffffffffffffffffffffffffffffffffffff82169050919050565b6000620000d982620000ac565b9050919050565b620000eb81620000cc565b8114620000f757600080fd5b50565b6000815190506200010b81620000e0565b92915050565b600080604083850312156200012b576200012a620000a7565b5b60006200013b85828601620000fa565b92505060206200014e85828601620000fa565b9150509250929050565b60805160a0516114ff620001e7600039600081816101e6015281816102ee015281816104b901528181610608015281816107e7015281816108e101528181610a110152610a7f0152600081816101b6015281816102500152818161041a015281816105670152818161074d0152818161088c015281816109b501528181610a320152610a5e01526114ff6000f3fe608060405234801561001057600080fd5b50600436106100935760003560e01c806367b9a2861161006657806367b9a286146101105780638fab31231461011a5780639cd441da14610138578063a114398d14610168578063f7d3200f1461018457610093565b80630fc63d10146100985780632dd8979a146100b65780634e5c5db5146100d45780635f64b55b146100f2575b600080fd5b6100a06101b4565b6040516100ad9190610e6b565b60405180910390f35b6100be6101d8565b6040516100cb9190610e9f565b60405180910390f35b6100dc6101de565b6040516100e99190610e9f565b60405180910390f35b6100fa6101e4565b6040516101079190610e6b565b60405180910390f35b610118610208565b005b61012261055d565b60405161012f9190610e9f565b60405180910390f35b610152600480360381019061014d9190610eeb565b610563565b60405161015f9190610e9f565b60405180910390f35b610182600480360381019061017d9190610f69565b61088a565b005b61019e60048036038101906101999190610fa9565b610c24565b6040516101ab9190610e9f565b60405180910390f35b7f000000000000000000000000000000000000000000000000000000000000000081565b60015481565b60005481565b7f000000000000000000000000000000000000000000000000000000000000000081565b6000600360003373ffffffffffffffffffffffffffffffffffffffff1673ffffffffffffffffffffffffffffffffffffffff16815260200190815260200160002054905060007f000000000000000000000000000000000000000000000000000000000000000073ffffffffffffffffffffffffffffffffffffffff166370a08231306040518263ffffffff1660e01b81526004016102a79190610fe5565b602060405180830381865afa1580156102c4573d6000803e3d6000fd5b505050506040513d601f19601f820116820180604052508101906102e89190611015565b905060007f000000000000000000000000000000000000000000000000000000000000000073ffffffffffffffffffffffffffffffffffffffff166370a08231306040518263ffffffff1660e01b81526004016103459190610fe5565b602060405180830381865afa158015610362573d6000803e3d6000fd5b505050506040513d601f19601f820116820180604052508101906103869190611015565b905060006002548460005461039b9190611071565b6103a591906110fa565b90506103cf6040518060600160405280602681526020016114a46026913960005486600254610c3c565b6000600254856001546103e29190611071565b6103ec91906110fa565b90506103f83386610cde565b6104188285610407919061112b565b8285610413919061112b565b610d3e565b7f000000000000000000000000000000000000000000000000000000000000000073ffffffffffffffffffffffffffffffffffffffff1663a9059cbb33846040518363ffffffff1660e01b815260040161047392919061115f565b6020604051808303816000875af1158015610492573d6000803e3d6000fd5b505050506040513d601f19601f820116820180604052508101906104b691906111c0565b507f000000000000000000000000000000000000000000000000000000000000000073ffffffffffffffffffffffffffffffffffffffff1663a9059cbb33836040518363ffffffff1660e01b815260040161051292919061115f565b6020604051808303816000875af1158015610531573d6000803e3d6000fd5b505050506040513d601f19601f8201168201806040525081019061055591906111c0565b505050505050565b60025481565b60007f000000000000000000000000000000000000000000000000000000000000000073ffffffffffffffffffffffffffffffffffffffff166323b872dd3330866040518463ffffffff1660e01b81526004016105c2939291906111ed565b6020604051808303816000875af11580156105e1573d6000803e3d6000fd5b505050506040513d601f19601f8201168201806040525081019061060591906111c0565b507f000000000000000000000000000000000000000000000000000000000000000073ffffffffffffffffffffffffffffffffffffffff166323b872dd3330856040518463ffffffff1660e01b8152600401610663939291906111ed565b6020604051808303816000875af1158015610682573d6000803e3d6000fd5b505050506040513d601f19601f820116820180604052508101906106a691906111c0565b50600060025414156106c55781836106be9190611224565b90506106fb565b6001546000546106d59190611224565b60025483856106e49190611224565b6106ee9190611071565b6106f891906110fa565b90505b6000811161073e576040517f08c379a0000000000000000000000000000000000000000000000000000000008152600401610735906112d7565b60405180910390fd5b6107483382610d50565b6108847f000000000000000000000000000000000000000000000000000000000000000073ffffffffffffffffffffffffffffffffffffffff166370a08231306040518263ffffffff1660e01b81526004016107a49190610fe5565b602060405180830381865afa1580156107c1573d6000803e3d6000fd5b505050506040513d601f19601f820116820180604052508101906107e59190611015565b7f000000000000000000000000000000000000000000000000000000000000000073ffffffffffffffffffffffffffffffffffffffff166370a08231306040518263ffffffff1660e01b815260040161083e9190610fe5565b602060405180830381865afa15801561085b573d6000803e3d6000fd5b505050506040513d601f19601f8201168201806040525081019061087f9190611015565b610d3e565b92915050565b7f000000000000000000000000000000000000000000000000000000000000000073ffffffffffffffffffffffffffffffffffffffff168273ffffffffffffffffffffffffffffffffffffffff16148061092f57507f000000000000000000000000000000000000000000000000000000000000000073ffffffffffffffffffffffffffffffffffffffff168273ffffffffffffffffffffffffffffffffffffffff16145b61096e576040517f08c379a000000000000000000000000000000000000000000000000000000000815260040161096590611343565b60405180910390fd5b600081116109b1576040517f08c379a00000000000000000000000000000000000000000000000000000000081526004016109a8906113af565b60405180910390fd5b60007f000000000000000000000000000000000000000000000000000000000000000073ffffffffffffffffffffffffffffffffffffffff168373ffffffffffffffffffffffffffffffffffffffff1614905060008060008084610a5c577f00000000000000000000000000000000000000000000000000000000000000007f0000000000000000000000000000000000000000000000000000000000000000600154600054610aa5565b7f00000000000000000000000000000000000000000000000000000000000000007f00000000000000000000000000000000000000000000000000000000000000006000546001545b93509350935093508373ffffffffffffffffffffffffffffffffffffffff166323b872dd3330896040518463ffffffff1660e01b8152600401610aea939291906111ed565b6020604051808303816000875af1158015610b09573d6000803e3d6000fd5b505050506040513d601f19601f82011682018060405250810190610b2d91906111c0565b5060006103e86103e588610b419190611071565b610b4b91906110fa565b905060008087610b72578284610b61919061112b565b8986610b6d9190611224565b610b8b565b8885610b7e9190611224565b8385610b8a919061112b565b5b91509150610b998282610d3e565b8573ffffffffffffffffffffffffffffffffffffffff1663a9059cbb33856040518363ffffffff1660e01b8152600401610bd492919061115f565b6020604051808303816000875af1158015610bf3573d6000803e3d6000fd5b505050506040513d601f19601f82011682018060405250810190610c1791906111c0565b5050505050505050505050565b60036020528060005260406000206000915090505481565b610cd884848484604051602401610c569493929190611457565b6040516020818303038152906040527fa7a87853000000000000000000000000000000000000000000000000000000007bffffffffffffffffffffffffffffffffffffffffffffffffffffffff19166020820180517bffffffffffffffffffffffffffffffffffffffffffffffffffffffff8381831617835250505050610dc3565b50505050565b600360008373ffffffffffffffffffffffffffffffffffffffff1673ffffffffffffffffffffffffffffffffffffffff168152602001908152602001600020600090558060026000828254610d33919061112b565b925050819055505050565b81600081905550806001819055505050565b80600360008473ffffffffffffffffffffffffffffffffffffffff1673ffffffffffffffffffffffffffffffffffffffff1681526020019081526020016000206000828254610d9f9190611224565b925050819055508060026000828254610db89190611224565b925050819055505050565b60008151905060006a636f6e736f6c652e6c6f679050602083016000808483855afa5050505050565b600073ffffffffffffffffffffffffffffffffffffffff82169050919050565b6000819050919050565b6000610e31610e2c610e2784610dec565b610e0c565b610dec565b9050919050565b6000610e4382610e16565b9050919050565b6000610e5582610e38565b9050919050565b610e6581610e4a565b82525050565b6000602082019050610e806000830184610e5c565b92915050565b6000819050919050565b610e9981610e86565b82525050565b6000602082019050610eb46000830184610e90565b92915050565b600080fd5b610ec881610e86565b8114610ed357600080fd5b50565b600081359050610ee581610ebf565b92915050565b60008060408385031215610f0257610f01610eba565b5b6000610f1085828601610ed6565b9250506020610f2185828601610ed6565b9150509250929050565b6000610f3682610dec565b9050919050565b610f4681610f2b565b8114610f5157600080fd5b50565b600081359050610f6381610f3d565b92915050565b60008060408385031215610f8057610f7f610eba565b5b6000610f8e85828601610f54565b9250506020610f9f85828601610ed6565b9150509250929050565b600060208284031215610fbf57610fbe610eba565b5b6000610fcd84828501610f54565b91505092915050565b610fdf81610f2b565b82525050565b6000602082019050610ffa6000830184610fd6565b92915050565b60008151905061100f81610ebf565b92915050565b60006020828403121561102b5761102a610eba565b5b600061103984828501611000565b91505092915050565b7f4e487b7100000000000000000000000000000000000000000000000000000000600052601160045260246000fd5b600061107c82610e86565b915061108783610e86565b9250817fffffffffffffffffffffffffffffffffffffffffffffffffffffffffffffffff04831182151516156110c0576110bf611042565b5b828202905092915050565b7f4e487b7100000000000000000000000000000000000000000000000000000000600052601260045260246000fd5b600061110582610e86565b915061111083610e86565b9250826111205761111f6110cb565b5b828204905092915050565b600061113682610e86565b915061114183610e86565b92508282101561115457611153611042565b5b828203905092915050565b60006040820190506111746000830185610fd6565b6111816020830184610e90565b9392505050565b60008115159050919050565b61119d81611188565b81146111a857600080fd5b50565b6000815190506111ba81611194565b92915050565b6000602082840312156111d6576111d5610eba565b5b60006111e4848285016111ab565b91505092915050565b60006060820190506112026000830186610fd6565b61120f6020830185610fd6565b61121c6040830184610e90565b949350505050565b600061122f82610e86565b915061123a83610e86565b9250827fffffffffffffffffffffffffffffffffffffffffffffffffffffffffffffffff0382111561126f5761126e611042565b5b828201905092915050565b600082825260208201905092915050565b7f5368617265732063616e2774206265207a65726f000000000000000000000000600082015250565b60006112c160148361127a565b91506112cc8261128b565b602082019050919050565b600060208201905081810360008301526112f0816112b4565b9050919050565b7f496e76616c696420546f6b656e20416464726573730000000000000000000000600082015250565b600061132d60158361127a565b9150611338826112f7565b602082019050919050565b6000602082019050818103600083015261135c81611320565b9050919050565b7f416d6f756e742073686f756c642062652067726561746572207468616e203000600082015250565b6000611399601f8361127a565b91506113a482611363565b602082019050919050565b600060208201905081810360008301526113c88161138c565b9050919050565b600081519050919050565b60005b838110156113f85780820151818401526020810190506113dd565b83811115611407576000848401525b50505050565b6000601f19601f8301169050919050565b6000611429826113cf565b611433818561127a565b93506114438185602086016113da565b61144c8161140d565b840191505092915050565b60006080820190508181036000830152611471818761141e565b90506114806020830186610e90565b61148d6040830185610e90565b61149a6060830184610e90565b9594505050505056fe526573657276652c2055736572205368617265732c20546f74616c20536861726573206f7574a264697066735822122083fdad4f490b18ea82a9caaf70bbddd4ae650736e1e7691ecfdda06a24466e2264736f6c634300080c0033","opcodes":"PUSH1 0xC0 PUSH1 0x40 MSTORE CALLVALUE DUP1 ISZERO PUSH3 0x11 JUMPI PUSH1 0x0 DUP1 REVERT JUMPDEST POP PUSH1 0x40 MLOAD PUSH3 0x16E6 CODESIZE SUB DUP1 PUSH3 0x16E6 DUP4 CODECOPY DUP2 DUP2 ADD PUSH1 0x40 MSTORE DUP2 ADD SWAP1 PUSH3 0x37 SWAP2 SWAP1 PUSH3 0x111 JUMP JUMPDEST DUP2 PUSH20 0xFFFFFFFFFFFFFFFFFFFFFFFFFFFFFFFFFFFFFFFF AND PUSH1 0x80 DUP2 PUSH20 0xFFFFFFFFFFFFFFFFFFFFFFFFFFFFFFFFFFFFFFFF AND DUP2 MSTORE POP POP DUP1 PUSH20 0xFFFFFFFFFFFFFFFFFFFFFFFFFFFFFFFFFFFFFFFF AND PUSH1 0xA0 DUP2 PUSH20 0xFFFFFFFFFFFFFFFFFFFFFFFFFFFFFFFFFFFFFFFF AND DUP2 MSTORE POP POP POP POP PUSH3 0x158 JUMP JUMPDEST PUSH1 0x0 DUP1 REVERT JUMPDEST PUSH1 0x0 PUSH20 0xFFFFFFFFFFFFFFFFFFFFFFFFFFFFFFFFFFFFFFFF DUP3 AND SWAP1 POP SWAP2 SWAP1 POP JUMP JUMPDEST PUSH1 0x0 PUSH3 0xD9 DUP3 PUSH3 0xAC JUMP JUMPDEST SWAP1 POP SWAP2 SWAP1 POP JUMP JUMPDEST PUSH3 0xEB DUP2 PUSH3 0xCC JUMP JUMPDEST DUP2 EQ PUSH3 0xF7 JUMPI PUSH1 0x0 DUP1 REVERT JUMPDEST POP JUMP JUMPDEST PUSH1 0x0 DUP2 MLOAD SWAP1 POP PUSH3 0x10B DUP2 PUSH3 0xE0 JUMP JUMPDEST SWAP3 SWAP2 POP POP JUMP JUMPDEST PUSH1 0x0 DUP1 PUSH1 0x40 DUP4 DUP6 SUB SLT ISZERO PUSH3 0x12B JUMPI PUSH3 0x12A PUSH3 0xA7 JUMP JUMPDEST JUMPDEST PUSH1 0x0 PUSH3 0x13B DUP6 DUP3 DUP7 ADD PUSH3 0xFA JUMP JUMPDEST SWAP3 POP POP PUSH1 0x20 PUSH3 0x14E DUP6 DUP3 DUP7 ADD PUSH3 0xFA JUMP JUMPDEST SWAP2 POP POP SWAP3 POP SWAP3 SWAP1 POP JUMP JUMPDEST PUSH1 0x80 MLOAD PUSH1 0xA0 MLOAD PUSH2 0x14FF PUSH3 0x1E7 PUSH1 0x0 CODECOPY PUSH1 0x0 DUP2 DUP2 PUSH2 0x1E6 ADD MSTORE DUP2 DUP2 PUSH2 0x2EE ADD MSTORE DUP2 DUP2 PUSH2 0x4B9 ADD MSTORE DUP2 DUP2 PUSH2 0x608 ADD MSTORE DUP2 DUP2 PUSH2 0x7E7 ADD MSTORE DUP2 DUP2 PUSH2 0x8E1 ADD MSTORE DUP2 DUP2 PUSH2 0xA11 ADD MSTORE PUSH2 0xA7F ADD MSTORE PUSH1 0x0 DUP2 DUP2 PUSH2 0x1B6 ADD MSTORE DUP2 DUP2 PUSH2 0x250 ADD MSTORE DUP2 DUP2 PUSH2 0x41A ADD MSTORE DUP2 DUP2 PUSH2 0x567 ADD MSTORE DUP2 DUP2 PUSH2 0x74D ADD MSTORE DUP2 DUP2 PUSH2 0x88C ADD MSTORE DUP2 DUP2 PUSH2 0x9B5 ADD MSTORE DUP2 DUP2 PUSH2 0xA32 ADD MSTORE PUSH2 0xA5E ADD MSTORE PUSH2 0x14FF PUSH1 0x0 RETURN INVALID PUSH1 0x80 PUSH1 0x40 MSTORE CALLVALUE DUP1 ISZERO PUSH2 0x10 JUMPI PUSH1 0x0 DUP1 REVERT JUMPDEST POP PUSH1 0x4 CALLDATASIZE LT PUSH2 0x93 JUMPI PUSH1 0x0 CALLDATALOAD PUSH1 0xE0 SHR DUP1 PUSH4 0x67B9A286 GT PUSH2 0x66 JUMPI DUP1 PUSH4 0x67B9A286 EQ PUSH2 0x110 JUMPI DUP1 PUSH4 0x8FAB3123 EQ PUSH2 0x11A JUMPI DUP1 PUSH4 0x9CD441DA EQ PUSH2 0x138 JUMPI DUP1 PUSH4 0xA114398D EQ PUSH2 0x168 JUMPI DUP1 PUSH4 0xF7D3200F EQ PUSH2 0x184 JUMPI PUSH2 0x93 JUMP JUMPDEST DUP1 PUSH4 0xFC63D10 EQ PUSH2 0x98 JUMPI DUP1 PUSH4 0x2DD8979A EQ PUSH2 0xB6 JUMPI DUP1 PUSH4 0x4E5C5DB5 EQ PUSH2 0xD4 JUMPI DUP1 PUSH4 0x5F64B55B EQ PUSH2 0xF2 JUMPI JUMPDEST PUSH1 0x0 DUP1 REVERT JUMPDEST PUSH2 0xA0 PUSH2 0x1B4 JUMP JUMPDEST PUSH1 0x40 MLOAD PUSH2 0xAD SWAP2 SWAP1 PUSH2 0xE6B JUMP JUMPDEST PUSH1 0x40 MLOAD DUP1 SWAP2 SUB SWAP1 RETURN JUMPDEST PUSH2 0xBE PUSH2 0x1D8 JUMP JUMPDEST PUSH1 0x40 MLOAD PUSH2 0xCB SWAP2 SWAP1 PUSH2 0xE9F JUMP JUMPDEST PUSH1 0x40 MLOAD DUP1 SWAP2 SUB SWAP1 RETURN JUMPDEST PUSH2 0xDC PUSH2 0x1DE JUMP JUMPDEST PUSH1 0x40 MLOAD PUSH2 0xE9 SWAP2 SWAP1 PUSH2 0xE9F JUMP JUMPDEST PUSH1 0x40 MLOAD DUP1 SWAP2 SUB SWAP1 RETURN JUMPDEST PUSH2 0xFA PUSH2 0x1E4 JUMP JUMPDEST PUSH1 0x40 MLOAD PUSH2 0x107 SWAP2 SWAP1 PUSH2 0xE6B JUMP JUMPDEST PUSH1 0x40 MLOAD DUP1 SWAP2 SUB SWAP1 RETURN JUMPDEST PUSH2 0x118 PUSH2 0x208 JUMP JUMPDEST STOP JUMPDEST PUSH2 0x122 PUSH2 0x55D JUMP JUMPDEST PUSH1 0x40 MLOAD PUSH2 0x12F SWAP2 SWAP1 PUSH2 0xE9F JUMP JUMPDEST PUSH1 0x40 MLOAD DUP1 SWAP2 SUB SWAP1 RETURN JUMPDEST PUSH2 0x152 PUSH1 0x4 DUP1 CALLDATASIZE SUB DUP2 ADD SWAP1 PUSH2 0x14D SWAP2 SWAP1 PUSH2 0xEEB JUMP JUMPDEST PUSH2 0x563 JUMP JUMPDEST PUSH1 0x40 MLOAD PUSH2 0x15F SWAP2 SWAP1 PUSH2 0xE9F JUMP JUMPDEST PUSH1 0x40 MLOAD DUP1 SWAP2 SUB SWAP1 RETURN JUMPDEST PUSH2 0x182 PUSH1 0x4 DUP1 CALLDATASIZE SUB DUP2 ADD SWAP1 PUSH2 0x17D SWAP2 SWAP1 PUSH2 0xF69 JUMP JUMPDEST PUSH2 0x88A JUMP JUMPDEST STOP JUMPDEST PUSH2 0x19E PUSH1 0x4 DUP1 CALLDATASIZE SUB DUP2 ADD SWAP1 PUSH2 0x199 SWAP2 SWAP1 PUSH2 0xFA9 JUMP JUMPDEST PUSH2 0xC24 JUMP JUMPDEST PUSH1 0x40 MLOAD PUSH2 0x1AB SWAP2 SWAP1 PUSH2 0xE9F JUMP JUMPDEST PUSH1 0x40 MLOAD DUP1 SWAP2 SUB SWAP1 RETURN JUMPDEST PUSH32 0x0 DUP2 JUMP JUMPDEST PUSH1 0x1 SLOAD DUP2 JUMP JUMPDEST PUSH1 0x0 SLOAD DUP2 JUMP JUMPDEST PUSH32 0x0 DUP2 JUMP JUMPDEST PUSH1 0x0 PUSH1 0x3 PUSH1 0x0 CALLER PUSH20 0xFFFFFFFFFFFFFFFFFFFFFFFFFFFFFFFFFFFFFFFF AND PUSH20 0xFFFFFFFFFFFFFFFFFFFFFFFFFFFFFFFFFFFFFFFF AND DUP2 MSTORE PUSH1 0x20 ADD SWAP1 DUP2 MSTORE PUSH1 0x20 ADD PUSH1 0x0 KECCAK256 SLOAD SWAP1 POP PUSH1 0x0 PUSH32 0x0 PUSH20 0xFFFFFFFFFFFFFFFFFFFFFFFFFFFFFFFFFFFFFFFF AND PUSH4 0x70A08231 ADDRESS PUSH1 0x40 MLOAD DUP3 PUSH4 0xFFFFFFFF AND PUSH1 0xE0 SHL DUP2 MSTORE PUSH1 0x4 ADD PUSH2 0x2A7 SWAP2 SWAP1 PUSH2 0xFE5 JUMP JUMPDEST PUSH1 0x20 PUSH1 0x40 MLOAD DUP1 DUP4 SUB DUP2 DUP7 GAS STATICCALL ISZERO DUP1 ISZERO PUSH2 0x2C4 JUMPI RETURNDATASIZE PUSH1 0x0 DUP1 RETURNDATACOPY RETURNDATASIZE PUSH1 0x0 REVERT JUMPDEST POP POP POP POP PUSH1 0x40 MLOAD RETURNDATASIZE PUSH1 0x1F NOT PUSH1 0x1F DUP3 ADD AND DUP3 ADD DUP1 PUSH1 0x40 MSTORE POP DUP2 ADD SWAP1 PUSH2 0x2E8 SWAP2 SWAP1 PUSH2 0x1015 JUMP JUMPDEST SWAP1 POP PUSH1 0x0 PUSH32 0x0 PUSH20 0xFFFFFFFFFFFFFFFFFFFFFFFFFFFFFFFFFFFFFFFF AND PUSH4 0x70A08231 ADDRESS PUSH1 0x40 MLOAD DUP3 PUSH4 0xFFFFFFFF AND PUSH1 0xE0 SHL DUP2 MSTORE PUSH1 0x4 ADD PUSH2 0x345 SWAP2 SWAP1 PUSH2 0xFE5 JUMP JUMPDEST PUSH1 0x20 PUSH1 0x40 MLOAD DUP1 DUP4 SUB DUP2 DUP7 GAS STATICCALL ISZERO DUP1 ISZERO PUSH2 0x362 JUMPI RETURNDATASIZE PUSH1 0x0 DUP1 RETURNDATACOPY RETURNDATASIZE PUSH1 0x0 REVERT JUMPDEST POP POP POP POP PUSH1 0x40 MLOAD RETURNDATASIZE PUSH1 0x1F NOT PUSH1 0x1F DUP3 ADD AND DUP3 ADD DUP1 PUSH1 0x40 MSTORE POP DUP2 ADD SWAP1 PUSH2 0x386 SWAP2 SWAP1 PUSH2 0x1015 JUMP JUMPDEST SWAP1 POP PUSH1 0x0 PUSH1 0x2 SLOAD DUP5 PUSH1 0x0 SLOAD PUSH2 0x39B SWAP2 SWAP1 PUSH2 0x1071 JUMP JUMPDEST PUSH2 0x3A5 SWAP2 SWAP1 PUSH2 0x10FA JUMP JUMPDEST SWAP1 POP PUSH2 0x3CF PUSH1 0x40 MLOAD DUP1 PUSH1 0x60 ADD PUSH1 0x40 MSTORE DUP1 PUSH1 0x26 DUP2 MSTORE PUSH1 0x20 ADD PUSH2 0x14A4 PUSH1 0x26 SWAP2 CODECOPY PUSH1 0x0 SLOAD DUP7 PUSH1 0x2 SLOAD PUSH2 0xC3C JUMP JUMPDEST PUSH1 0x0 PUSH1 0x2 SLOAD DUP6 PUSH1 0x1 SLOAD PUSH2 0x3E2 SWAP2 SWAP1 PUSH2 0x1071 JUMP JUMPDEST PUSH2 0x3EC SWAP2 SWAP1 PUSH2 0x10FA JUMP JUMPDEST SWAP1 POP PUSH2 0x3F8 CALLER DUP7 PUSH2 0xCDE JUMP JUMPDEST PUSH2 0x418 DUP3 DUP6 PUSH2 0x407 SWAP2 SWAP1 PUSH2 0x112B JUMP JUMPDEST DUP3 DUP6 PUSH2 0x413 SWAP2 SWAP1 PUSH2 0x112B JUMP JUMPDEST PUSH2 0xD3E JUMP JUMPDEST PUSH32 0x0 PUSH20 0xFFFFFFFFFFFFFFFFFFFFFFFFFFFFFFFFFFFFFFFF AND PUSH4 0xA9059CBB CALLER DUP5 PUSH1 0x40 MLOAD DUP4 PUSH4 0xFFFFFFFF AND PUSH1 0xE0 SHL DUP2 MSTORE PUSH1 0x4 ADD PUSH2 0x473 SWAP3 SWAP2 SWAP1 PUSH2 0x115F JUMP JUMPDEST PUSH1 0x20 PUSH1 0x40 MLOAD DUP1 DUP4 SUB DUP2 PUSH1 0x0 DUP8 GAS CALL ISZERO DUP1 ISZERO PUSH2 0x492 JUMPI RETURNDATASIZE PUSH1 0x0 DUP1 RETURNDATACOPY RETURNDATASIZE PUSH1 0x0 REVERT JUMPDEST POP POP POP POP PUSH1 0x40 MLOAD RETURNDATASIZE PUSH1 0x1F NOT PUSH1 0x1F DUP3 ADD AND DUP3 ADD DUP1 PUSH1 0x40 MSTORE POP DUP2 ADD SWAP1 PUSH2 0x4B6 SWAP2 SWAP1 PUSH2 0x11C0 JUMP JUMPDEST POP PUSH32 0x0 PUSH20 0xFFFFFFFFFFFFFFFFFFFFFFFFFFFFFFFFFFFFFFFF AND PUSH4 0xA9059CBB CALLER DUP4 PUSH1 0x40 MLOAD DUP4 PUSH4 0xFFFFFFFF AND PUSH1 0xE0 SHL DUP2 MSTORE PUSH1 0x4 ADD PUSH2 0x512 SWAP3 SWAP2 SWAP1 PUSH2 0x115F JUMP JUMPDEST PUSH1 0x20 PUSH1 0x40 MLOAD DUP1 DUP4 SUB DUP2 PUSH1 0x0 DUP8 GAS CALL ISZERO DUP1 ISZERO PUSH2 0x531 JUMPI RETURNDATASIZE PUSH1 0x0 DUP1 RETURNDATACOPY RETURNDATASIZE PUSH1 0x0 REVERT JUMPDEST POP POP POP POP PUSH1 0x40 MLOAD RETURNDATASIZE PUSH1 0x1F NOT PUSH1 0x1F DUP3 ADD AND DUP3 ADD DUP1 PUSH1 0x40 MSTORE POP DUP2 ADD SWAP1 PUSH2 0x555 SWAP2 SWAP1 PUSH2 0x11C0 JUMP JUMPDEST POP POP POP POP POP POP JUMP JUMPDEST PUSH1 0x2 SLOAD DUP2 JUMP JUMPDEST PUSH1 0x0 PUSH32 0x0 PUSH20 0xFFFFFFFFFFFFFFFFFFFFFFFFFFFFFFFFFFFFFFFF AND PUSH4 0x23B872DD CALLER ADDRESS DUP7 PUSH1 0x40 MLOAD DUP5 PUSH4 0xFFFFFFFF AND PUSH1 0xE0 SHL DUP2 MSTORE PUSH1 0x4 ADD PUSH2 0x5C2 SWAP4 SWAP3 SWAP2 SWAP1 PUSH2 0x11ED JUMP JUMPDEST PUSH1 0x20 PUSH1 0x40 MLOAD DUP1 DUP4 SUB DUP2 PUSH1 0x0 DUP8 GAS CALL ISZERO DUP1 ISZERO PUSH2 0x5E1 JUMPI RETURNDATASIZE PUSH1 0x0 DUP1 RETURNDATACOPY RETURNDATASIZE PUSH1 0x0 REVERT JUMPDEST POP POP POP POP PUSH1 0x40 MLOAD RETURNDATASIZE PUSH1 0x1F NOT PUSH1 0x1F DUP3 ADD AND DUP3 ADD DUP1 PUSH1 0x40 MSTORE POP DUP2 ADD SWAP1 PUSH2 0x605 SWAP2 SWAP1 PUSH2 0x11C0 JUMP JUMPDEST POP PUSH32 0x0 PUSH20 0xFFFFFFFFFFFFFFFFFFFFFFFFFFFFFFFFFFFFFFFF AND PUSH4 0x23B872DD CALLER ADDRESS DUP6 PUSH1 0x40 MLOAD DUP5 PUSH4 0xFFFFFFFF AND PUSH1 0xE0 SHL DUP2 MSTORE PUSH1 0x4 ADD PUSH2 0x663 SWAP4 SWAP3 SWAP2 SWAP1 PUSH2 0x11ED JUMP JUMPDEST PUSH1 0x20 PUSH1 0x40 MLOAD DUP1 DUP4 SUB DUP2 PUSH1 0x0 DUP8 GAS CALL ISZERO DUP1 ISZERO PUSH2 0x682 JUMPI RETURNDATASIZE PUSH1 0x0 DUP1 RETURNDATACOPY RETURNDATASIZE PUSH1 0x0 REVERT JUMPDEST POP POP POP POP PUSH1 0x40 MLOAD RETURNDATASIZE PUSH1 0x1F NOT PUSH1 0x1F DUP3 ADD AND DUP3 ADD DUP1 PUSH1 0x40 MSTORE POP DUP2 ADD SWAP1 PUSH2 0x6A6 SWAP2 SWAP1 PUSH2 0x11C0 JUMP JUMPDEST POP PUSH1 0x0 PUSH1 0x2 SLOAD EQ ISZERO PUSH2 0x6C5 JUMPI DUP2 DUP4 PUSH2 0x6BE SWAP2 SWAP1 PUSH2 0x1224 JUMP JUMPDEST SWAP1 POP PUSH2 0x6FB JUMP JUMPDEST PUSH1 0x1 SLOAD PUSH1 0x0 SLOAD PUSH2 0x6D5 SWAP2 SWAP1 PUSH2 0x1224 JUMP JUMPDEST PUSH1 0x2 SLOAD DUP4 DUP6 PUSH2 0x6E4 SWAP2 SWAP1 PUSH2 0x1224 JUMP JUMPDEST PUSH2 0x6EE SWAP2 SWAP1 PUSH2 0x1071 JUMP JUMPDEST PUSH2 0x6F8 SWAP2 SWAP1 PUSH2 0x10FA JUMP JUMPDEST SWAP1 POP JUMPDEST PUSH1 0x0 DUP2 GT PUSH2 0x73E JUMPI PUSH1 0x40 MLOAD PUSH32 0x8C379A000000000000000000000000000000000000000000000000000000000 DUP2 MSTORE PUSH1 0x4 ADD PUSH2 0x735 SWAP1 PUSH2 0x12D7 JUMP JUMPDEST PUSH1 0x40 MLOAD DUP1 SWAP2 SUB SWAP1 REVERT JUMPDEST PUSH2 0x748 CALLER DUP3 PUSH2 0xD50 JUMP JUMPDEST PUSH2 0x884 PUSH32 0x0 PUSH20 0xFFFFFFFFFFFFFFFFFFFFFFFFFFFFFFFFFFFFFFFF AND PUSH4 0x70A08231 ADDRESS PUSH1 0x40 MLOAD DUP3 PUSH4 0xFFFFFFFF AND PUSH1 0xE0 SHL DUP2 MSTORE PUSH1 0x4 ADD PUSH2 0x7A4 SWAP2 SWAP1 PUSH2 0xFE5 JUMP JUMPDEST PUSH1 0x20 PUSH1 0x40 MLOAD DUP1 DUP4 SUB DUP2 DUP7 GAS STATICCALL ISZERO DUP1 ISZERO PUSH2 0x7C1 JUMPI RETURNDATASIZE PUSH1 0x0 DUP1 RETURNDATACOPY RETURNDATASIZE PUSH1 0x0 REVERT JUMPDEST POP POP POP POP PUSH1 0x40 MLOAD RETURNDATASIZE PUSH1 0x1F NOT PUSH1 0x1F DUP3 ADD AND DUP3 ADD DUP1 PUSH1 0x40 MSTORE POP DUP2 ADD SWAP1 PUSH2 0x7E5 SWAP2 SWAP1 PUSH2 0x1015 JUMP JUMPDEST PUSH32 0x0 PUSH20 0xFFFFFFFFFFFFFFFFFFFFFFFFFFFFFFFFFFFFFFFF AND PUSH4 0x70A08231 ADDRESS PUSH1 0x40 MLOAD DUP3 PUSH4 0xFFFFFFFF AND PUSH1 0xE0 SHL DUP2 MSTORE PUSH1 0x4 ADD PUSH2 0x83E SWAP2 SWAP1 PUSH2 0xFE5 JUMP JUMPDEST PUSH1 0x20 PUSH1 0x40 MLOAD DUP1 DUP4 SUB DUP2 DUP7 GAS STATICCALL ISZERO DUP1 ISZERO PUSH2 0x85B JUMPI RETURNDATASIZE PUSH1 0x0 DUP1 RETURNDATACOPY RETURNDATASIZE PUSH1 0x0 REVERT JUMPDEST POP POP POP POP PUSH1 0x40 MLOAD RETURNDATASIZE PUSH1 0x1F NOT PUSH1 0x1F DUP3 ADD AND DUP3 ADD DUP1 PUSH1 0x40 MSTORE POP DUP2 ADD SWAP1 PUSH2 0x87F SWAP2 SWAP1 PUSH2 0x1015 JUMP JUMPDEST PUSH2 0xD3E JUMP JUMPDEST SWAP3 SWAP2 POP POP JUMP JUMPDEST PUSH32 0x0 PUSH20 0xFFFFFFFFFFFFFFFFFFFFFFFFFFFFFFFFFFFFFFFF AND DUP3 PUSH20 0xFFFFFFFFFFFFFFFFFFFFFFFFFFFFFFFFFFFFFFFF AND EQ DUP1 PUSH2 0x92F JUMPI POP PUSH32 0x0 PUSH20 0xFFFFFFFFFFFFFFFFFFFFFFFFFFFFFFFFFFFFFFFF AND DUP3 PUSH20 0xFFFFFFFFFFFFFFFFFFFFFFFFFFFFFFFFFFFFFFFF AND EQ JUMPDEST PUSH2 0x96E JUMPI PUSH1 0x40 MLOAD PUSH32 0x8C379A000000000000000000000000000000000000000000000000000000000 DUP2 MSTORE PUSH1 0x4 ADD PUSH2 0x965 SWAP1 PUSH2 0x1343 JUMP JUMPDEST PUSH1 0x40 MLOAD DUP1 SWAP2 SUB SWAP1 REVERT JUMPDEST PUSH1 0x0 DUP2 GT PUSH2 0x9B1 JUMPI PUSH1 0x40 MLOAD PUSH32 0x8C379A000000000000000000000000000000000000000000000000000000000 DUP2 MSTORE PUSH1 0x4 ADD PUSH2 0x9A8 SWAP1 PUSH2 0x13AF JUMP JUMPDEST PUSH1 0x40 MLOAD DUP1 SWAP2 SUB SWAP1 REVERT JUMPDEST PUSH1 0x0 PUSH32 0x0 PUSH20 0xFFFFFFFFFFFFFFFFFFFFFFFFFFFFFFFFFFFFFFFF AND DUP4 PUSH20 0xFFFFFFFFFFFFFFFFFFFFFFFFFFFFFFFFFFFFFFFF AND EQ SWAP1 POP PUSH1 0x0 DUP1 PUSH1 0x0 DUP1 DUP5 PUSH2 0xA5C JUMPI PUSH32 0x0 PUSH32 0x0 PUSH1 0x1 SLOAD PUSH1 0x0 SLOAD PUSH2 0xAA5 JUMP JUMPDEST PUSH32 0x0 PUSH32 0x0 PUSH1 0x0 SLOAD PUSH1 0x1 SLOAD JUMPDEST SWAP4 POP SWAP4 POP SWAP4 POP SWAP4 POP DUP4 PUSH20 0xFFFFFFFFFFFFFFFFFFFFFFFFFFFFFFFFFFFFFFFF AND PUSH4 0x23B872DD CALLER ADDRESS DUP10 PUSH1 0x40 MLOAD DUP5 PUSH4 0xFFFFFFFF AND PUSH1 0xE0 SHL DUP2 MSTORE PUSH1 0x4 ADD PUSH2 0xAEA SWAP4 SWAP3 SWAP2 SWAP1 PUSH2 0x11ED JUMP JUMPDEST PUSH1 0x20 PUSH1 0x40 MLOAD DUP1 DUP4 SUB DUP2 PUSH1 0x0 DUP8 GAS CALL ISZERO DUP1 ISZERO PUSH2 0xB09 JUMPI RETURNDATASIZE PUSH1 0x0 DUP1 RETURNDATACOPY RETURNDATASIZE PUSH1 0x0 REVERT JUMPDEST POP POP POP POP PUSH1 0x40 MLOAD RETURNDATASIZE PUSH1 0x1F NOT PUSH1 0x1F DUP3 ADD AND DUP3 ADD DUP1 PUSH1 0x40 MSTORE POP DUP2 ADD SWAP1 PUSH2 0xB2D SWAP2 SWAP1 PUSH2 0x11C0 JUMP JUMPDEST POP PUSH1 0x0 PUSH2 0x3E8 PUSH2 0x3E5 DUP9 PUSH2 0xB41 SWAP2 SWAP1 PUSH2 0x1071 JUMP JUMPDEST PUSH2 0xB4B SWAP2 SWAP1 PUSH2 0x10FA JUMP JUMPDEST SWAP1 POP PUSH1 0x0 DUP1 DUP8 PUSH2 0xB72 JUMPI DUP3 DUP5 PUSH2 0xB61 SWAP2 SWAP1 PUSH2 0x112B JUMP JUMPDEST DUP10 DUP7 PUSH2 0xB6D SWAP2 SWAP1 PUSH2 0x1224 JUMP JUMPDEST PUSH2 0xB8B JUMP JUMPDEST DUP9 DUP6 PUSH2 0xB7E SWAP2 SWAP1 PUSH2 0x1224 JUMP JUMPDEST DUP4 DUP6 PUSH2 0xB8A SWAP2 SWAP1 PUSH2 0x112B JUMP JUMPDEST JUMPDEST SWAP2 POP SWAP2 POP PUSH2 0xB99 DUP3 DUP3 PUSH2 0xD3E JUMP JUMPDEST DUP6 PUSH20 0xFFFFFFFFFFFFFFFFFFFFFFFFFFFFFFFFFFFFFFFF AND PUSH4 0xA9059CBB CALLER DUP6 PUSH1 0x40 MLOAD DUP4 PUSH4 0xFFFFFFFF AND PUSH1 0xE0 SHL DUP2 MSTORE PUSH1 0x4 ADD PUSH2 0xBD4 SWAP3 SWAP2 SWAP1 PUSH2 0x115F JUMP JUMPDEST PUSH1 0x20 PUSH1 0x40 MLOAD DUP1 DUP4 SUB DUP2 PUSH1 0x0 DUP8 GAS CALL ISZERO DUP1 ISZERO PUSH2 0xBF3 JUMPI RETURNDATASIZE PUSH1 0x0 DUP1 RETURNDATACOPY RETURNDATASIZE PUSH1 0x0 REVERT JUMPDEST POP POP POP POP PUSH1 0x40 MLOAD RETURNDATASIZE PUSH1 0x1F NOT PUSH1 0x1F DUP3 ADD AND DUP3 ADD DUP1 PUSH1 0x40 MSTORE POP DUP2 ADD SWAP1 PUSH2 0xC17 SWAP2 SWAP1 PUSH2 0x11C0 JUMP JUMPDEST POP POP POP POP POP POP POP POP POP POP POP JUMP JUMPDEST PUSH1 0x3 PUSH1 0x20 MSTORE DUP1 PUSH1 0x0 MSTORE PUSH1 0x40 PUSH1 0x0 KECCAK256 PUSH1 0x0 SWAP2 POP SWAP1 POP SLOAD DUP2 JUMP JUMPDEST PUSH2 0xCD8 DUP5 DUP5 DUP5 DUP5 PUSH1 0x40 MLOAD PUSH1 0x24 ADD PUSH2 0xC56 SWAP5 SWAP4 SWAP3 SWAP2 SWAP1 PUSH2 0x1457 JUMP JUMPDEST PUSH1 0x40 MLOAD PUSH1 0x20 DUP2 DUP4 SUB SUB DUP2 MSTORE SWAP1 PUSH1 0x40 MSTORE PUSH32 0xA7A8785300000000000000000000000000000000000000000000000000000000 PUSH28 0xFFFFFFFFFFFFFFFFFFFFFFFFFFFFFFFFFFFFFFFFFFFFFFFFFFFFFFFF NOT AND PUSH1 0x20 DUP3 ADD DUP1 MLOAD PUSH28 0xFFFFFFFFFFFFFFFFFFFFFFFFFFFFFFFFFFFFFFFFFFFFFFFFFFFFFFFF DUP4 DUP2 DUP4 AND OR DUP4 MSTORE POP POP POP POP PUSH2 0xDC3 JUMP JUMPDEST POP POP POP POP JUMP JUMPDEST PUSH1 0x3 PUSH1 0x0 DUP4 PUSH20 0xFFFFFFFFFFFFFFFFFFFFFFFFFFFFFFFFFFFFFFFF AND PUSH20 0xFFFFFFFFFFFFFFFFFFFFFFFFFFFFFFFFFFFFFFFF AND DUP2 MSTORE PUSH1 0x20 ADD SWAP1 DUP2 MSTORE PUSH1 0x20 ADD PUSH1 0x0 KECCAK256 PUSH1 0x0 SWAP1 SSTORE DUP1 PUSH1 0x2 PUSH1 0x0 DUP3 DUP3 SLOAD PUSH2 0xD33 SWAP2 SWAP1 PUSH2 0x112B JUMP JUMPDEST SWAP3 POP POP DUP2 SWAP1 SSTORE POP POP POP JUMP JUMPDEST DUP2 PUSH1 0x0 DUP2 SWAP1 SSTORE POP DUP1 PUSH1 0x1 DUP2 SWAP1 SSTORE POP POP POP JUMP JUMPDEST DUP1 PUSH1 0x3 PUSH1 0x0 DUP5 PUSH20 0xFFFFFFFFFFFFFFFFFFFFFFFFFFFFFFFFFFFFFFFF AND PUSH20 0xFFFFFFFFFFFFFFFFFFFFFFFFFFFFFFFFFFFFFFFF AND DUP2 MSTORE PUSH1 0x20 ADD SWAP1 DUP2 MSTORE PUSH1 0x20 ADD PUSH1 0x0 KECCAK256 PUSH1 0x0 DUP3 DUP3 SLOAD PUSH2 0xD9F SWAP2 SWAP1 PUSH2 0x1224 JUMP JUMPDEST SWAP3 POP POP DUP2 SWAP1 SSTORE POP DUP1 PUSH1 0x2 PUSH1 0x0 DUP3 DUP3 SLOAD PUSH2 0xDB8 SWAP2 SWAP1 PUSH2 0x1224 JUMP JUMPDEST SWAP3 POP POP DUP2 SWAP1 SSTORE POP POP POP JUMP JUMPDEST PUSH1 0x0 DUP2 MLOAD SWAP1 POP PUSH1 0x0 PUSH11 0x636F6E736F6C652E6C6F67 SWAP1 POP PUSH1 0x20 DUP4 ADD PUSH1 0x0 DUP1 DUP5 DUP4 DUP6 GAS STATICCALL POP POP POP POP POP JUMP JUMPDEST PUSH1 0x0 PUSH20 0xFFFFFFFFFFFFFFFFFFFFFFFFFFFFFFFFFFFFFFFF DUP3 AND SWAP1 POP SWAP2 SWAP1 POP JUMP JUMPDEST PUSH1 0x0 DUP2 SWAP1 POP SWAP2 SWAP1 POP JUMP JUMPDEST PUSH1 0x0 PUSH2 0xE31 PUSH2 0xE2C PUSH2 0xE27 DUP5 PUSH2 0xDEC JUMP JUMPDEST PUSH2 0xE0C JUMP JUMPDEST PUSH2 0xDEC JUMP JUMPDEST SWAP1 POP SWAP2 SWAP1 POP JUMP JUMPDEST PUSH1 0x0 PUSH2 0xE43 DUP3 PUSH2 0xE16 JUMP JUMPDEST SWAP1 POP SWAP2 SWAP1 POP JUMP JUMPDEST PUSH1 0x0 PUSH2 0xE55 DUP3 PUSH2 0xE38 JUMP JUMPDEST SWAP1 POP SWAP2 SWAP1 POP JUMP JUMPDEST PUSH2 0xE65 DUP2 PUSH2 0xE4A JUMP JUMPDEST DUP3 MSTORE POP POP JUMP JUMPDEST PUSH1 0x0 PUSH1 0x20 DUP3 ADD SWAP1 POP PUSH2 0xE80 PUSH1 0x0 DUP4 ADD DUP5 PUSH2 0xE5C JUMP JUMPDEST SWAP3 SWAP2 POP POP JUMP JUMPDEST PUSH1 0x0 DUP2 SWAP1 POP SWAP2 SWAP1 POP JUMP JUMPDEST PUSH2 0xE99 DUP2 PUSH2 0xE86 JUMP JUMPDEST DUP3 MSTORE POP POP JUMP JUMPDEST PUSH1 0x0 PUSH1 0x20 DUP3 ADD SWAP1 POP PUSH2 0xEB4 PUSH1 0x0 DUP4 ADD DUP5 PUSH2 0xE90 JUMP JUMPDEST SWAP3 SWAP2 POP POP JUMP JUMPDEST PUSH1 0x0 DUP1 REVERT JUMPDEST PUSH2 0xEC8 DUP2 PUSH2 0xE86 JUMP JUMPDEST DUP2 EQ PUSH2 0xED3 JUMPI PUSH1 0x0 DUP1 REVERT JUMPDEST POP JUMP JUMPDEST PUSH1 0x0 DUP2 CALLDATALOAD SWAP1 POP PUSH2 0xEE5 DUP2 PUSH2 0xEBF JUMP JUMPDEST SWAP3 SWAP2 POP POP JUMP JUMPDEST PUSH1 0x0 DUP1 PUSH1 0x40 DUP4 DUP6 SUB SLT ISZERO PUSH2 0xF02 JUMPI PUSH2 0xF01 PUSH2 0xEBA JUMP JUMPDEST JUMPDEST PUSH1 0x0 PUSH2 0xF10 DUP6 DUP3 DUP7 ADD PUSH2 0xED6 JUMP JUMPDEST SWAP3 POP POP PUSH1 0x20 PUSH2 0xF21 DUP6 DUP3 DUP7 ADD PUSH2 0xED6 JUMP JUMPDEST SWAP2 POP POP SWAP3 POP SWAP3 SWAP1 POP JUMP JUMPDEST PUSH1 0x0 PUSH2 0xF36 DUP3 PUSH2 0xDEC JUMP JUMPDEST SWAP1 POP SWAP2 SWAP1 POP JUMP JUMPDEST PUSH2 0xF46 DUP2 PUSH2 0xF2B JUMP JUMPDEST DUP2 EQ PUSH2 0xF51 JUMPI PUSH1 0x0 DUP1 REVERT JUMPDEST POP JUMP JUMPDEST PUSH1 0x0 DUP2 CALLDATALOAD SWAP1 POP PUSH2 0xF63 DUP2 PUSH2 0xF3D JUMP JUMPDEST SWAP3 SWAP2 POP POP JUMP JUMPDEST PUSH1 0x0 DUP1 PUSH1 0x40 DUP4 DUP6 SUB SLT ISZERO PUSH2 0xF80 JUMPI PUSH2 0xF7F PUSH2 0xEBA JUMP JUMPDEST JUMPDEST PUSH1 0x0 PUSH2 0xF8E DUP6 DUP3 DUP7 ADD PUSH2 0xF54 JUMP JUMPDEST SWAP3 POP POP PUSH1 0x20 PUSH2 0xF9F DUP6 DUP3 DUP7 ADD PUSH2 0xED6 JUMP JUMPDEST SWAP2 POP POP SWAP3 POP SWAP3 SWAP1 POP JUMP JUMPDEST PUSH1 0x0 PUSH1 0x20 DUP3 DUP5 SUB SLT ISZERO PUSH2 0xFBF JUMPI PUSH2 0xFBE PUSH2 0xEBA JUMP JUMPDEST JUMPDEST PUSH1 0x0 PUSH2 0xFCD DUP5 DUP3 DUP6 ADD PUSH2 0xF54 JUMP JUMPDEST SWAP2 POP POP SWAP3 SWAP2 POP POP JUMP JUMPDEST PUSH2 0xFDF DUP2 PUSH2 0xF2B JUMP JUMPDEST DUP3 MSTORE POP POP JUMP JUMPDEST PUSH1 0x0 PUSH1 0x20 DUP3 ADD SWAP1 POP PUSH2 0xFFA PUSH1 0x0 DUP4 ADD DUP5 PUSH2 0xFD6 JUMP JUMPDEST SWAP3 SWAP2 POP POP JUMP JUMPDEST PUSH1 0x0 DUP2 MLOAD SWAP1 POP PUSH2 0x100F DUP2 PUSH2 0xEBF JUMP JUMPDEST SWAP3 SWAP2 POP POP JUMP JUMPDEST PUSH1 0x0 PUSH1 0x20 DUP3 DUP5 SUB SLT ISZERO PUSH2 0x102B JUMPI PUSH2 0x102A PUSH2 0xEBA JUMP JUMPDEST JUMPDEST PUSH1 0x0 PUSH2 0x1039 DUP5 DUP3 DUP6 ADD PUSH2 0x1000 JUMP JUMPDEST SWAP2 POP POP SWAP3 SWAP2 POP POP JUMP JUMPDEST PUSH32 0x4E487B7100000000000000000000000000000000000000000000000000000000 PUSH1 0x0 MSTORE PUSH1 0x11 PUSH1 0x4 MSTORE PUSH1 0x24 PUSH1 0x0 REVERT JUMPDEST PUSH1 0x0 PUSH2 0x107C DUP3 PUSH2 0xE86 JUMP JUMPDEST SWAP2 POP PUSH2 0x1087 DUP4 PUSH2 0xE86 JUMP JUMPDEST SWAP3 POP DUP2 PUSH32 0xFFFFFFFFFFFFFFFFFFFFFFFFFFFFFFFFFFFFFFFFFFFFFFFFFFFFFFFFFFFFFFFF DIV DUP4 GT DUP3 ISZERO ISZERO AND ISZERO PUSH2 0x10C0 JUMPI PUSH2 0x10BF PUSH2 0x1042 JUMP JUMPDEST JUMPDEST DUP3 DUP3 MUL SWAP1 POP SWAP3 SWAP2 POP POP JUMP JUMPDEST PUSH32 0x4E487B7100000000000000000000000000000000000000000000000000000000 PUSH1 0x0 MSTORE PUSH1 0x12 PUSH1 0x4 MSTORE PUSH1 0x24 PUSH1 0x0 REVERT JUMPDEST PUSH1 0x0 PUSH2 0x1105 DUP3 PUSH2 0xE86 JUMP JUMPDEST SWAP2 POP PUSH2 0x1110 DUP4 PUSH2 0xE86 JUMP JUMPDEST SWAP3 POP DUP3 PUSH2 0x1120 JUMPI PUSH2 0x111F PUSH2 0x10CB JUMP JUMPDEST JUMPDEST DUP3 DUP3 DIV SWAP1 POP SWAP3 SWAP2 POP POP JUMP JUMPDEST PUSH1 0x0 PUSH2 0x1136 DUP3 PUSH2 0xE86 JUMP JUMPDEST SWAP2 POP PUSH2 0x1141 DUP4 PUSH2 0xE86 JUMP JUMPDEST SWAP3 POP DUP3 DUP3 LT ISZERO PUSH2 0x1154 JUMPI PUSH2 0x1153 PUSH2 0x1042 JUMP JUMPDEST JUMPDEST DUP3 DUP3 SUB SWAP1 POP SWAP3 SWAP2 POP POP JUMP JUMPDEST PUSH1 0x0 PUSH1 0x40 DUP3 ADD SWAP1 POP PUSH2 0x1174 PUSH1 0x0 DUP4 ADD DUP6 PUSH2 0xFD6 JUMP JUMPDEST PUSH2 0x1181 PUSH1 0x20 DUP4 ADD DUP5 PUSH2 0xE90 JUMP JUMPDEST SWAP4 SWAP3 POP POP POP JUMP JUMPDEST PUSH1 0x0 DUP2 ISZERO ISZERO SWAP1 POP SWAP2 SWAP1 POP JUMP JUMPDEST PUSH2 0x119D DUP2 PUSH2 0x1188 JUMP JUMPDEST DUP2 EQ PUSH2 0x11A8 JUMPI PUSH1 0x0 DUP1 REVERT JUMPDEST POP JUMP JUMPDEST PUSH1 0x0 DUP2 MLOAD SWAP1 POP PUSH2 0x11BA DUP2 PUSH2 0x1194 JUMP JUMPDEST SWAP3 SWAP2 POP POP JUMP JUMPDEST PUSH1 0x0 PUSH1 0x20 DUP3 DUP5 SUB SLT ISZERO PUSH2 0x11D6 JUMPI PUSH2 0x11D5 PUSH2 0xEBA JUMP JUMPDEST JUMPDEST PUSH1 0x0 PUSH2 0x11E4 DUP5 DUP3 DUP6 ADD PUSH2 0x11AB JUMP JUMPDEST SWAP2 POP POP SWAP3 SWAP2 POP POP JUMP JUMPDEST PUSH1 0x0 PUSH1 0x60 DUP3 ADD SWAP1 POP PUSH2 0x1202 PUSH1 0x0 DUP4 ADD DUP7 PUSH2 0xFD6 JUMP JUMPDEST PUSH2 0x120F PUSH1 0x20 DUP4 ADD DUP6 PUSH2 0xFD6 JUMP JUMPDEST PUSH2 0x121C PUSH1 0x40 DUP4 ADD DUP5 PUSH2 0xE90 JUMP JUMPDEST SWAP5 SWAP4 POP POP POP POP JUMP JUMPDEST PUSH1 0x0 PUSH2 0x122F DUP3 PUSH2 0xE86 JUMP JUMPDEST SWAP2 POP PUSH2 0x123A DUP4 PUSH2 0xE86 JUMP JUMPDEST SWAP3 POP DUP3 PUSH32 0xFFFFFFFFFFFFFFFFFFFFFFFFFFFFFFFFFFFFFFFFFFFFFFFFFFFFFFFFFFFFFFFF SUB DUP3 GT ISZERO PUSH2 0x126F JUMPI PUSH2 0x126E PUSH2 0x1042 JUMP JUMPDEST JUMPDEST DUP3 DUP3 ADD SWAP1 POP SWAP3 SWAP2 POP POP JUMP JUMPDEST PUSH1 0x0 DUP3 DUP3 MSTORE PUSH1 0x20 DUP3 ADD SWAP1 POP SWAP3 SWAP2 POP POP JUMP JUMPDEST PUSH32 0x5368617265732063616E2774206265207A65726F000000000000000000000000 PUSH1 0x0 DUP3 ADD MSTORE POP JUMP JUMPDEST PUSH1 0x0 PUSH2 0x12C1 PUSH1 0x14 DUP4 PUSH2 0x127A JUMP JUMPDEST SWAP2 POP PUSH2 0x12CC DUP3 PUSH2 0x128B JUMP JUMPDEST PUSH1 0x20 DUP3 ADD SWAP1 POP SWAP2 SWAP1 POP JUMP JUMPDEST PUSH1 0x0 PUSH1 0x20 DUP3 ADD SWAP1 POP DUP2 DUP2 SUB PUSH1 0x0 DUP4 ADD MSTORE PUSH2 0x12F0 DUP2 PUSH2 0x12B4 JUMP JUMPDEST SWAP1 POP SWAP2 SWAP1 POP JUMP JUMPDEST PUSH32 0x496E76616C696420546F6B656E20416464726573730000000000000000000000 PUSH1 0x0 DUP3 ADD MSTORE POP JUMP JUMPDEST PUSH1 0x0 PUSH2 0x132D PUSH1 0x15 DUP4 PUSH2 0x127A JUMP JUMPDEST SWAP2 POP PUSH2 0x1338 DUP3 PUSH2 0x12F7 JUMP JUMPDEST PUSH1 0x20 DUP3 ADD SWAP1 POP SWAP2 SWAP1 POP JUMP JUMPDEST PUSH1 0x0 PUSH1 0x20 DUP3 ADD SWAP1 POP DUP2 DUP2 SUB PUSH1 0x0 DUP4 ADD MSTORE PUSH2 0x135C DUP2 PUSH2 0x1320 JUMP JUMPDEST SWAP1 POP SWAP2 SWAP1 POP JUMP JUMPDEST PUSH32 0x416D6F756E742073686F756C642062652067726561746572207468616E203000 PUSH1 0x0 DUP3 ADD MSTORE POP JUMP JUMPDEST PUSH1 0x0 PUSH2 0x1399 PUSH1 0x1F DUP4 PUSH2 0x127A JUMP JUMPDEST SWAP2 POP PUSH2 0x13A4 DUP3 PUSH2 0x1363 JUMP JUMPDEST PUSH1 0x20 DUP3 ADD SWAP1 POP SWAP2 SWAP1 POP JUMP JUMPDEST PUSH1 0x0 PUSH1 0x20 DUP3 ADD SWAP1 POP DUP2 DUP2 SUB PUSH1 0x0 DUP4 ADD MSTORE PUSH2 0x13C8 DUP2 PUSH2 0x138C JUMP JUMPDEST SWAP1 POP SWAP2 SWAP1 POP JUMP JUMPDEST PUSH1 0x0 DUP2 MLOAD SWAP1 POP SWAP2 SWAP1 POP JUMP JUMPDEST PUSH1 0x0 JUMPDEST DUP4 DUP2 LT ISZERO PUSH2 0x13F8 JUMPI DUP1 DUP3 ADD MLOAD DUP2 DUP5 ADD MSTORE PUSH1 0x20 DUP2 ADD SWAP1 POP PUSH2 0x13DD JUMP JUMPDEST DUP4 DUP2 GT ISZERO PUSH2 0x1407 JUMPI PUSH1 0x0 DUP5 DUP5 ADD MSTORE JUMPDEST POP POP POP POP JUMP JUMPDEST PUSH1 0x0 PUSH1 0x1F NOT PUSH1 0x1F DUP4 ADD AND SWAP1 POP SWAP2 SWAP1 POP JUMP JUMPDEST PUSH1 0x0 PUSH2 0x1429 DUP3 PUSH2 0x13CF JUMP JUMPDEST PUSH2 0x1433 DUP2 DUP6 PUSH2 0x127A JUMP JUMPDEST SWAP4 POP PUSH2 0x1443 DUP2 DUP6 PUSH1 0x20 DUP7 ADD PUSH2 0x13DA JUMP JUMPDEST PUSH2 0x144C DUP2 PUSH2 0x140D JUMP JUMPDEST DUP5 ADD SWAP2 POP POP SWAP3 SWAP2 POP POP JUMP JUMPDEST PUSH1 0x0 PUSH1 0x80 DUP3 ADD SWAP1 POP DUP2 DUP2 SUB PUSH1 0x0 DUP4 ADD MSTORE PUSH2 0x1471 DUP2 DUP8 PUSH2 0x141E JUMP JUMPDEST SWAP1 POP PUSH2 0x1480 PUSH1 0x20 DUP4 ADD DUP7 PUSH2 0xE90 JUMP JUMPDEST PUSH2 0x148D PUSH1 0x40 DUP4 ADD DUP6 PUSH2 0xE90 JUMP JUMPDEST PUSH2 0x149A PUSH1 0x60 DUP4 ADD DUP5 PUSH2 0xE90 JUMP JUMPDEST SWAP6 SWAP5 POP POP POP POP POP JUMP INVALID MSTORE PUSH6 0x73657276652C KECCAK256 SSTORE PUSH20 0x6572205368617265732C20546F74616C20536861 PUSH19 0x6573206F7574A264697066735822122083FDAD 0x4F 0x49 SIGNEXTEND XOR 0xEA DUP3 0xA9 0xCA 0xAF PUSH17 0xBBDDD4AE650736E1E7691ECFDDA06A2446 PUSH15 0x2264736F6C634300080C0033000000 "},"methodIdentifiers":{"addLiquidity(uint256,uint256)":"9cd441da","individualShares(address)":"f7d3200f","removeLiquidity()":"67b9a286","s_reserveA()":"4e5c5db5","s_reserveB()":"2dd8979a","s_totalSharesMinted()":"8fab3123","swapTokens(address,uint256)":"a114398d","tokenA()":"0fc63d10","tokenB()":"5f64b55b"}}}}}