{"contracts/ConstantProductAMM.sol":{"AnyxSwap":{"abi":[{"inputs":[{"internalType":"address","name":"_tokenA","type":"address"},{"internalType":"address","name":"_tokenB","type":"address"}],"stateMutability":"nonpayable","type":"constructor"},{"inputs":[{"internalType":"uint256","name":"_amountA","type":"uint256"},{"internalType":"uint256","name":"_amountB","type":"uint256"}],"name":"addLiquidity","outputs":[{"internalType":"uint256","name":"shares","type":"uint256"}],"stateMutability":"nonpayable","type":"function"},{"inputs":[],"name":"removeLiquidity","outputs":[],"stateMutability":"nonpayable","type":"function"},{"inputs":[],"name":"reserveA","outputs":[{"internalType":"uint256","name":"","type":"uint256"}],"stateMutability":"view","type":"function"},{"inputs":[],"name":"reserveB","outputs":[{"internalType":"uint256","name":"","type":"uint256"}],"stateMutability":"view","type":"function"},{"inputs":[{"internalType":"address","name":"","type":"address"}],"name":"sharesOfIndividual","outputs":[{"internalType":"uint256","name":"","type":"uint256"}],"stateMutability":"view","type":"function"},{"inputs":[{"internalType":"address","name":"_tokenIn","type":"address"},{"internalType":"uint256","name":"_amountIn","type":"uint256"}],"name":"swapTokens","outputs":[],"stateMutability":"nonpayable","type":"function"},{"inputs":[],"name":"tokenA","outputs":[{"internalType":"contract IERC20","name":"","type":"address"}],"stateMutability":"view","type":"function"},{"inputs":[],"name":"tokenB","outputs":[{"internalType":"contract IERC20","name":"","type":"address"}],"stateMutability":"view","type":"function"},{"inputs":[],"name":"totalShares","outputs":[{"internalType":"uint256","name":"","type":"uint256"}],"stateMutability":"view","type":"function"}],"evm":{"bytecode":{"linkReferences":{},"object":"60c06040523480156200001157600080fd5b50604051620017b2380380620017b2833981810160405281019062000037919062000111565b8173ffffffffffffffffffffffffffffffffffffffff1660808173ffffffffffffffffffffffffffffffffffffffff16815250508073ffffffffffffffffffffffffffffffffffffffff1660a08173ffffffffffffffffffffffffffffffffffffffff1681525050505062000158565b600080fd5b600073ffffffffffffffffffffffffffffffffffffffff82169050919050565b6000620000d982620000ac565b9050919050565b620000eb81620000cc565b8114620000f757600080fd5b50565b6000815190506200010b81620000e0565b92915050565b600080604083850312156200012b576200012a620000a7565b5b60006200013b85828601620000fa565b92505060206200014e85828601620000fa565b9150509250929050565b60805160a0516115bd620001f5600039600081816101fe015281816102c2015281816104a5015281816105ee015281816108540152818161094e01528181610a7e01528181610aec0152610cfe0152600081816101b601528181610224015281816104060152818161054d015281816107ba015281816108f901528181610a2201528181610a9f01528181610acb0152610c6401526115bd6000f3fe608060405234801561001057600080fd5b50600436106100935760003560e01c80635f64b55b116100665780635f64b55b1461012257806367b9a286146101405780639cd441da1461014a578063a114398d1461017a578063dc5fa6c51461019657610093565b80630fc63d101461009857806319e36f3b146100b65780633a98ef39146100d45780635f376241146100f2575b600080fd5b6100a06101b4565b6040516100ad9190610fb7565b60405180910390f35b6100be6101d8565b6040516100cb9190610feb565b60405180910390f35b6100dc6101de565b6040516100e99190610feb565b60405180910390f35b61010c60048036038101906101079190611049565b6101e4565b6040516101199190610feb565b60405180910390f35b61012a6101fc565b6040516101379190610fb7565b60405180910390f35b610148610220565b005b610164600480360381019061015f91906110a2565b610549565b6040516101719190610feb565b60405180910390f35b610194600480360381019061018f91906110e2565b6108f7565b005b61019e610da6565b6040516101ab9190610feb565b60405180910390f35b7f000000000000000000000000000000000000000000000000000000000000000081565b60015481565b60025481565b60036020528060005260406000206000915090505481565b7f000000000000000000000000000000000000000000000000000000000000000081565b60007f000000000000000000000000000000000000000000000000000000000000000073ffffffffffffffffffffffffffffffffffffffff166370a08231306040518263ffffffff1660e01b815260040161027b9190611131565b602060405180830381865afa158015610298573d6000803e3d6000fd5b505050506040513d601f19601f820116820180604052508101906102bc9190611161565b905060007f000000000000000000000000000000000000000000000000000000000000000073ffffffffffffffffffffffffffffffffffffffff166370a08231306040518263ffffffff1660e01b81526004016103199190611131565b602060405180830381865afa158015610336573d6000803e3d6000fd5b505050506040513d601f19601f8201168201806040525081019061035a9190611161565b90506000600360003373ffffffffffffffffffffffffffffffffffffffff1673ffffffffffffffffffffffffffffffffffffffff168152602001908152602001600020549050600060025484836103b191906111bd565b6103bb9190611246565b9050600060025484846103ce91906111bd565b6103d89190611246565b90506103e43384610dac565b61040482866103f39190611277565b82866103ff9190611277565b610e1f565b7f000000000000000000000000000000000000000000000000000000000000000073ffffffffffffffffffffffffffffffffffffffff1663a9059cbb33846040518363ffffffff1660e01b815260040161045f9291906112ab565b6020604051808303816000875af115801561047e573d6000803e3d6000fd5b505050506040513d601f19601f820116820180604052508101906104a2919061130c565b507f000000000000000000000000000000000000000000000000000000000000000073ffffffffffffffffffffffffffffffffffffffff1663a9059cbb33836040518363ffffffff1660e01b81526004016104fe9291906112ab565b6020604051808303816000875af115801561051d573d6000803e3d6000fd5b505050506040513d601f19601f82011682018060405250810190610541919061130c565b505050505050565b60007f000000000000000000000000000000000000000000000000000000000000000073ffffffffffffffffffffffffffffffffffffffff166323b872dd3330866040518463ffffffff1660e01b81526004016105a893929190611339565b6020604051808303816000875af11580156105c7573d6000803e3d6000fd5b505050506040513d601f19601f820116820180604052508101906105eb919061130c565b507f000000000000000000000000000000000000000000000000000000000000000073ffffffffffffffffffffffffffffffffffffffff166323b872dd3330856040518463ffffffff1660e01b815260040161064993929190611339565b6020604051808303816000875af1158015610668573d6000803e3d6000fd5b505050506040513d601f19601f8201168201806040525081019061068c919061130c565b5060008054118061069f57506000600154115b156107015781836106b09190611246565b6001546000546106c09190611246565b14610700576040517f08c379a00000000000000000000000000000000000000000000000000000000081526004016106f7906113cd565b60405180910390fd5b5b6000600254141561072757610720828461071b91906111bd565b610e31565b9050610768565b6107656000546002548561073b91906111bd565b6107459190611246565b6001546002548561075691906111bd565b6107609190611246565b610eab565b90505b600081116107ab576040517f08c379a00000000000000000000000000000000000000000000000000000000081526004016107a290611439565b60405180910390fd5b6107b53382610ec5565b6108f17f000000000000000000000000000000000000000000000000000000000000000073ffffffffffffffffffffffffffffffffffffffff166370a08231306040518263ffffffff1660e01b81526004016108119190611131565b602060405180830381865afa15801561082e573d6000803e3d6000fd5b505050506040513d601f19601f820116820180604052508101906108529190611161565b7f000000000000000000000000000000000000000000000000000000000000000073ffffffffffffffffffffffffffffffffffffffff166370a08231306040518263ffffffff1660e01b81526004016108ab9190611131565b602060405180830381865afa1580156108c8573d6000803e3d6000fd5b505050506040513d601f19601f820116820180604052508101906108ec9190611161565b610e1f565b92915050565b7f000000000000000000000000000000000000000000000000000000000000000073ffffffffffffffffffffffffffffffffffffffff168273ffffffffffffffffffffffffffffffffffffffff16148061099c57507f000000000000000000000000000000000000000000000000000000000000000073ffffffffffffffffffffffffffffffffffffffff168273ffffffffffffffffffffffffffffffffffffffff16145b6109db576040517f08c379a00000000000000000000000000000000000000000000000000000000081526004016109d2906114a5565b60405180910390fd5b60008111610a1e576040517f08c379a0000000000000000000000000000000000000000000000000000000008152600401610a1590611511565b60405180910390fd5b60007f000000000000000000000000000000000000000000000000000000000000000073ffffffffffffffffffffffffffffffffffffffff168373ffffffffffffffffffffffffffffffffffffffff1614905060008060008084610ac9577f00000000000000000000000000000000000000000000000000000000000000007f0000000000000000000000000000000000000000000000000000000000000000600154600054610b12565b7f00000000000000000000000000000000000000000000000000000000000000007f00000000000000000000000000000000000000000000000000000000000000006000546001545b93509350935093508373ffffffffffffffffffffffffffffffffffffffff166323b872dd3330896040518463ffffffff1660e01b8152600401610b5793929190611339565b6020604051808303816000875af1158015610b76573d6000803e3d6000fd5b505050506040513d601f19601f82011682018060405250810190610b9a919061130c565b5060006103e86103e588610bae91906111bd565b610bb89190611246565b905060008184610bc89190611531565b8284610bd491906111bd565b610bde9190611246565b90508473ffffffffffffffffffffffffffffffffffffffff1663a9059cbb33836040518363ffffffff1660e01b8152600401610c1b9291906112ab565b6020604051808303816000875af1158015610c3a573d6000803e3d6000fd5b505050506040513d601f19601f82011682018060405250810190610c5e919061130c565b50610d9b7f000000000000000000000000000000000000000000000000000000000000000073ffffffffffffffffffffffffffffffffffffffff166370a08231306040518263ffffffff1660e01b8152600401610cbb9190611131565b602060405180830381865afa158015610cd8573d6000803e3d6000fd5b505050506040513d601f19601f82011682018060405250810190610cfc9190611161565b7f000000000000000000000000000000000000000000000000000000000000000073ffffffffffffffffffffffffffffffffffffffff166370a08231306040518263ffffffff1660e01b8152600401610d559190611131565b602060405180830381865afa158015610d72573d6000803e3d6000fd5b505050506040513d601f19601f82011682018060405250810190610d969190611161565b610e1f565b505050505050505050565b60005481565b80600360008473ffffffffffffffffffffffffffffffffffffffff1673ffffffffffffffffffffffffffffffffffffffff1681526020019081526020016000206000828254610dfb9190611277565b925050819055508060026000828254610e149190611277565b925050819055505050565b81600081905550806001819055505050565b60006003821115610e985781905060006001600284610e509190611246565b610e5a9190611531565b90505b81811015610e92578091506002818285610e779190611246565b610e819190611531565b610e8b9190611246565b9050610e5d565b50610ea6565b60008214610ea557600190505b5b919050565b600081831115610ebb5781610ebd565b825b905092915050565b80600360008473ffffffffffffffffffffffffffffffffffffffff1673ffffffffffffffffffffffffffffffffffffffff1681526020019081526020016000206000828254610f149190611531565b925050819055508060026000828254610f2d9190611531565b925050819055505050565b600073ffffffffffffffffffffffffffffffffffffffff82169050919050565b6000819050919050565b6000610f7d610f78610f7384610f38565b610f58565b610f38565b9050919050565b6000610f8f82610f62565b9050919050565b6000610fa182610f84565b9050919050565b610fb181610f96565b82525050565b6000602082019050610fcc6000830184610fa8565b92915050565b6000819050919050565b610fe581610fd2565b82525050565b60006020820190506110006000830184610fdc565b92915050565b600080fd5b600061101682610f38565b9050919050565b6110268161100b565b811461103157600080fd5b50565b6000813590506110438161101d565b92915050565b60006020828403121561105f5761105e611006565b5b600061106d84828501611034565b91505092915050565b61107f81610fd2565b811461108a57600080fd5b50565b60008135905061109c81611076565b92915050565b600080604083850312156110b9576110b8611006565b5b60006110c78582860161108d565b92505060206110d88582860161108d565b9150509250929050565b600080604083850312156110f9576110f8611006565b5b600061110785828601611034565b92505060206111188582860161108d565b9150509250929050565b61112b8161100b565b82525050565b60006020820190506111466000830184611122565b92915050565b60008151905061115b81611076565b92915050565b60006020828403121561117757611176611006565b5b60006111858482850161114c565b91505092915050565b7f4e487b7100000000000000000000000000000000000000000000000000000000600052601160045260246000fd5b60006111c882610fd2565b91506111d383610fd2565b9250817fffffffffffffffffffffffffffffffffffffffffffffffffffffffffffffffff048311821515161561120c5761120b61118e565b5b828202905092915050565b7f4e487b7100000000000000000000000000000000000000000000000000000000600052601260045260246000fd5b600061125182610fd2565b915061125c83610fd2565b92508261126c5761126b611217565b5b828204905092915050565b600061128282610fd2565b915061128d83610fd2565b9250828210156112a05761129f61118e565b5b828203905092915050565b60006040820190506112c06000830185611122565b6112cd6020830184610fdc565b9392505050565b60008115159050919050565b6112e9816112d4565b81146112f457600080fd5b50565b600081519050611306816112e0565b92915050565b60006020828403121561132257611321611006565b5b6000611330848285016112f7565b91505092915050565b600060608201905061134e6000830186611122565b61135b6020830185611122565b6113686040830184610fdc565b949350505050565b600082825260208201905092915050565b7f64792f647820213d20592f580000000000000000000000000000000000000000600082015250565b60006113b7600c83611370565b91506113c282611381565b602082019050919050565b600060208201905081810360008301526113e6816113aa565b9050919050565b7f536861726573203d203000000000000000000000000000000000000000000000600082015250565b6000611423600a83611370565b915061142e826113ed565b602082019050919050565b6000602082019050818103600083015261145281611416565b9050919050565b7f496e76616c696420546f6b656e20416464726573730000000000000000000000600082015250565b600061148f601583611370565b915061149a82611459565b602082019050919050565b600060208201905081810360008301526114be81611482565b9050919050565b7f416d6f756e742073686f756c642062652067726561746572207468616e203000600082015250565b60006114fb601f83611370565b9150611506826114c5565b602082019050919050565b6000602082019050818103600083015261152a816114ee565b9050919050565b600061153c82610fd2565b915061154783610fd2565b9250827fffffffffffffffffffffffffffffffffffffffffffffffffffffffffffffffff0382111561157c5761157b61118e565b5b82820190509291505056fea26469706673582212204494c29c127be4c17b95540d037e473b36c3a670c718a6137481e474d1144f3c64736f6c634300080c0033","opcodes":"PUSH1 0xC0 PUSH1 0x40 MSTORE CALLVALUE DUP1 ISZERO PUSH3 0x11 JUMPI PUSH1 0x0 DUP1 REVERT JUMPDEST POP PUSH1 0x40 MLOAD PUSH3 0x17B2 CODESIZE SUB DUP1 PUSH3 0x17B2 DUP4 CODECOPY DUP2 DUP2 ADD PUSH1 0x40 MSTORE DUP2 ADD SWAP1 PUSH3 0x37 SWAP2 SWAP1 PUSH3 0x111 JUMP JUMPDEST DUP2 PUSH20 0xFFFFFFFFFFFFFFFFFFFFFFFFFFFFFFFFFFFFFFFF AND PUSH1 0x80 DUP2 PUSH20 0xFFFFFFFFFFFFFFFFFFFFFFFFFFFFFFFFFFFFFFFF AND DUP2 MSTORE POP POP DUP1 PUSH20 0xFFFFFFFFFFFFFFFFFFFFFFFFFFFFFFFFFFFFFFFF AND PUSH1 0xA0 DUP2 PUSH20 0xFFFFFFFFFFFFFFFFFFFFFFFFFFFFFFFFFFFFFFFF AND DUP2 MSTORE POP POP POP POP PUSH3 0x158 JUMP JUMPDEST PUSH1 0x0 DUP1 REVERT JUMPDEST PUSH1 0x0 PUSH20 0xFFFFFFFFFFFFFFFFFFFFFFFFFFFFFFFFFFFFFFFF DUP3 AND SWAP1 POP SWAP2 SWAP1 POP JUMP JUMPDEST PUSH1 0x0 PUSH3 0xD9 DUP3 PUSH3 0xAC JUMP JUMPDEST SWAP1 POP SWAP2 SWAP1 POP JUMP JUMPDEST PUSH3 0xEB DUP2 PUSH3 0xCC JUMP JUMPDEST DUP2 EQ PUSH3 0xF7 JUMPI PUSH1 0x0 DUP1 REVERT JUMPDEST POP JUMP JUMPDEST PUSH1 0x0 DUP2 MLOAD SWAP1 POP PUSH3 0x10B DUP2 PUSH3 0xE0 JUMP JUMPDEST SWAP3 SWAP2 POP POP JUMP JUMPDEST PUSH1 0x0 DUP1 PUSH1 0x40 DUP4 DUP6 SUB SLT ISZERO PUSH3 0x12B JUMPI PUSH3 0x12A PUSH3 0xA7 JUMP JUMPDEST JUMPDEST PUSH1 0x0 PUSH3 0x13B DUP6 DUP3 DUP7 ADD PUSH3 0xFA JUMP JUMPDEST SWAP3 POP POP PUSH1 0x20 PUSH3 0x14E DUP6 DUP3 DUP7 ADD PUSH3 0xFA JUMP JUMPDEST SWAP2 POP POP SWAP3 POP SWAP3 SWAP1 POP JUMP JUMPDEST PUSH1 0x80 MLOAD PUSH1 0xA0 MLOAD PUSH2 0x15BD PUSH3 0x1F5 PUSH1 0x0 CODECOPY PUSH1 0x0 DUP2 DUP2 PUSH2 0x1FE ADD MSTORE DUP2 DUP2 PUSH2 0x2C2 ADD MSTORE DUP2 DUP2 PUSH2 0x4A5 ADD MSTORE DUP2 DUP2 PUSH2 0x5EE ADD MSTORE DUP2 DUP2 PUSH2 0x854 ADD MSTORE DUP2 DUP2 PUSH2 0x94E ADD MSTORE DUP2 DUP2 PUSH2 0xA7E ADD MSTORE DUP2 DUP2 PUSH2 0xAEC ADD MSTORE PUSH2 0xCFE ADD MSTORE PUSH1 0x0 DUP2 DUP2 PUSH2 0x1B6 ADD MSTORE DUP2 DUP2 PUSH2 0x224 ADD MSTORE DUP2 DUP2 PUSH2 0x406 ADD MSTORE DUP2 DUP2 PUSH2 0x54D ADD MSTORE DUP2 DUP2 PUSH2 0x7BA ADD MSTORE DUP2 DUP2 PUSH2 0x8F9 ADD MSTORE DUP2 DUP2 PUSH2 0xA22 ADD MSTORE DUP2 DUP2 PUSH2 0xA9F ADD MSTORE DUP2 DUP2 PUSH2 0xACB ADD MSTORE PUSH2 0xC64 ADD MSTORE PUSH2 0x15BD PUSH1 0x0 RETURN INVALID PUSH1 0x80 PUSH1 0x40 MSTORE CALLVALUE DUP1 ISZERO PUSH2 0x10 JUMPI PUSH1 0x0 DUP1 REVERT JUMPDEST POP PUSH1 0x4 CALLDATASIZE LT PUSH2 0x93 JUMPI PUSH1 0x0 CALLDATALOAD PUSH1 0xE0 SHR DUP1 PUSH4 0x5F64B55B GT PUSH2 0x66 JUMPI DUP1 PUSH4 0x5F64B55B EQ PUSH2 0x122 JUMPI DUP1 PUSH4 0x67B9A286 EQ PUSH2 0x140 JUMPI DUP1 PUSH4 0x9CD441DA EQ PUSH2 0x14A JUMPI DUP1 PUSH4 0xA114398D EQ PUSH2 0x17A JUMPI DUP1 PUSH4 0xDC5FA6C5 EQ PUSH2 0x196 JUMPI PUSH2 0x93 JUMP JUMPDEST DUP1 PUSH4 0xFC63D10 EQ PUSH2 0x98 JUMPI DUP1 PUSH4 0x19E36F3B EQ PUSH2 0xB6 JUMPI DUP1 PUSH4 0x3A98EF39 EQ PUSH2 0xD4 JUMPI DUP1 PUSH4 0x5F376241 EQ PUSH2 0xF2 JUMPI JUMPDEST PUSH1 0x0 DUP1 REVERT JUMPDEST PUSH2 0xA0 PUSH2 0x1B4 JUMP JUMPDEST PUSH1 0x40 MLOAD PUSH2 0xAD SWAP2 SWAP1 PUSH2 0xFB7 JUMP JUMPDEST PUSH1 0x40 MLOAD DUP1 SWAP2 SUB SWAP1 RETURN JUMPDEST PUSH2 0xBE PUSH2 0x1D8 JUMP JUMPDEST PUSH1 0x40 MLOAD PUSH2 0xCB SWAP2 SWAP1 PUSH2 0xFEB JUMP JUMPDEST PUSH1 0x40 MLOAD DUP1 SWAP2 SUB SWAP1 RETURN JUMPDEST PUSH2 0xDC PUSH2 0x1DE JUMP JUMPDEST PUSH1 0x40 MLOAD PUSH2 0xE9 SWAP2 SWAP1 PUSH2 0xFEB JUMP JUMPDEST PUSH1 0x40 MLOAD DUP1 SWAP2 SUB SWAP1 RETURN JUMPDEST PUSH2 0x10C PUSH1 0x4 DUP1 CALLDATASIZE SUB DUP2 ADD SWAP1 PUSH2 0x107 SWAP2 SWAP1 PUSH2 0x1049 JUMP JUMPDEST PUSH2 0x1E4 JUMP JUMPDEST PUSH1 0x40 MLOAD PUSH2 0x119 SWAP2 SWAP1 PUSH2 0xFEB JUMP JUMPDEST PUSH1 0x40 MLOAD DUP1 SWAP2 SUB SWAP1 RETURN JUMPDEST PUSH2 0x12A PUSH2 0x1FC JUMP JUMPDEST PUSH1 0x40 MLOAD PUSH2 0x137 SWAP2 SWAP1 PUSH2 0xFB7 JUMP JUMPDEST PUSH1 0x40 MLOAD DUP1 SWAP2 SUB SWAP1 RETURN JUMPDEST PUSH2 0x148 PUSH2 0x220 JUMP JUMPDEST STOP JUMPDEST PUSH2 0x164 PUSH1 0x4 DUP1 CALLDATASIZE SUB DUP2 ADD SWAP1 PUSH2 0x15F SWAP2 SWAP1 PUSH2 0x10A2 JUMP JUMPDEST PUSH2 0x549 JUMP JUMPDEST PUSH1 0x40 MLOAD PUSH2 0x171 SWAP2 SWAP1 PUSH2 0xFEB JUMP JUMPDEST PUSH1 0x40 MLOAD DUP1 SWAP2 SUB SWAP1 RETURN JUMPDEST PUSH2 0x194 PUSH1 0x4 DUP1 CALLDATASIZE SUB DUP2 ADD SWAP1 PUSH2 0x18F SWAP2 SWAP1 PUSH2 0x10E2 JUMP JUMPDEST PUSH2 0x8F7 JUMP JUMPDEST STOP JUMPDEST PUSH2 0x19E PUSH2 0xDA6 JUMP JUMPDEST PUSH1 0x40 MLOAD PUSH2 0x1AB SWAP2 SWAP1 PUSH2 0xFEB JUMP JUMPDEST PUSH1 0x40 MLOAD DUP1 SWAP2 SUB SWAP1 RETURN JUMPDEST PUSH32 0x0 DUP2 JUMP JUMPDEST PUSH1 0x1 SLOAD DUP2 JUMP JUMPDEST PUSH1 0x2 SLOAD DUP2 JUMP JUMPDEST PUSH1 0x3 PUSH1 0x20 MSTORE DUP1 PUSH1 0x0 MSTORE PUSH1 0x40 PUSH1 0x0 KECCAK256 PUSH1 0x0 SWAP2 POP SWAP1 POP SLOAD DUP2 JUMP JUMPDEST PUSH32 0x0 DUP2 JUMP JUMPDEST PUSH1 0x0 PUSH32 0x0 PUSH20 0xFFFFFFFFFFFFFFFFFFFFFFFFFFFFFFFFFFFFFFFF AND PUSH4 0x70A08231 ADDRESS PUSH1 0x40 MLOAD DUP3 PUSH4 0xFFFFFFFF AND PUSH1 0xE0 SHL DUP2 MSTORE PUSH1 0x4 ADD PUSH2 0x27B SWAP2 SWAP1 PUSH2 0x1131 JUMP JUMPDEST PUSH1 0x20 PUSH1 0x40 MLOAD DUP1 DUP4 SUB DUP2 DUP7 GAS STATICCALL ISZERO DUP1 ISZERO PUSH2 0x298 JUMPI RETURNDATASIZE PUSH1 0x0 DUP1 RETURNDATACOPY RETURNDATASIZE PUSH1 0x0 REVERT JUMPDEST POP POP POP POP PUSH1 0x40 MLOAD RETURNDATASIZE PUSH1 0x1F NOT PUSH1 0x1F DUP3 ADD AND DUP3 ADD DUP1 PUSH1 0x40 MSTORE POP DUP2 ADD SWAP1 PUSH2 0x2BC SWAP2 SWAP1 PUSH2 0x1161 JUMP JUMPDEST SWAP1 POP PUSH1 0x0 PUSH32 0x0 PUSH20 0xFFFFFFFFFFFFFFFFFFFFFFFFFFFFFFFFFFFFFFFF AND PUSH4 0x70A08231 ADDRESS PUSH1 0x40 MLOAD DUP3 PUSH4 0xFFFFFFFF AND PUSH1 0xE0 SHL DUP2 MSTORE PUSH1 0x4 ADD PUSH2 0x319 SWAP2 SWAP1 PUSH2 0x1131 JUMP JUMPDEST PUSH1 0x20 PUSH1 0x40 MLOAD DUP1 DUP4 SUB DUP2 DUP7 GAS STATICCALL ISZERO DUP1 ISZERO PUSH2 0x336 JUMPI RETURNDATASIZE PUSH1 0x0 DUP1 RETURNDATACOPY RETURNDATASIZE PUSH1 0x0 REVERT JUMPDEST POP POP POP POP PUSH1 0x40 MLOAD RETURNDATASIZE PUSH1 0x1F NOT PUSH1 0x1F DUP3 ADD AND DUP3 ADD DUP1 PUSH1 0x40 MSTORE POP DUP2 ADD SWAP1 PUSH2 0x35A SWAP2 SWAP1 PUSH2 0x1161 JUMP JUMPDEST SWAP1 POP PUSH1 0x0 PUSH1 0x3 PUSH1 0x0 CALLER PUSH20 0xFFFFFFFFFFFFFFFFFFFFFFFFFFFFFFFFFFFFFFFF AND PUSH20 0xFFFFFFFFFFFFFFFFFFFFFFFFFFFFFFFFFFFFFFFF AND DUP2 MSTORE PUSH1 0x20 ADD SWAP1 DUP2 MSTORE PUSH1 0x20 ADD PUSH1 0x0 KECCAK256 SLOAD SWAP1 POP PUSH1 0x0 PUSH1 0x2 SLOAD DUP5 DUP4 PUSH2 0x3B1 SWAP2 SWAP1 PUSH2 0x11BD JUMP JUMPDEST PUSH2 0x3BB SWAP2 SWAP1 PUSH2 0x1246 JUMP JUMPDEST SWAP1 POP PUSH1 0x0 PUSH1 0x2 SLOAD DUP5 DUP5 PUSH2 0x3CE SWAP2 SWAP1 PUSH2 0x11BD JUMP JUMPDEST PUSH2 0x3D8 SWAP2 SWAP1 PUSH2 0x1246 JUMP JUMPDEST SWAP1 POP PUSH2 0x3E4 CALLER DUP5 PUSH2 0xDAC JUMP JUMPDEST PUSH2 0x404 DUP3 DUP7 PUSH2 0x3F3 SWAP2 SWAP1 PUSH2 0x1277 JUMP JUMPDEST DUP3 DUP7 PUSH2 0x3FF SWAP2 SWAP1 PUSH2 0x1277 JUMP JUMPDEST PUSH2 0xE1F JUMP JUMPDEST PUSH32 0x0 PUSH20 0xFFFFFFFFFFFFFFFFFFFFFFFFFFFFFFFFFFFFFFFF AND PUSH4 0xA9059CBB CALLER DUP5 PUSH1 0x40 MLOAD DUP4 PUSH4 0xFFFFFFFF AND PUSH1 0xE0 SHL DUP2 MSTORE PUSH1 0x4 ADD PUSH2 0x45F SWAP3 SWAP2 SWAP1 PUSH2 0x12AB JUMP JUMPDEST PUSH1 0x20 PUSH1 0x40 MLOAD DUP1 DUP4 SUB DUP2 PUSH1 0x0 DUP8 GAS CALL ISZERO DUP1 ISZERO PUSH2 0x47E JUMPI RETURNDATASIZE PUSH1 0x0 DUP1 RETURNDATACOPY RETURNDATASIZE PUSH1 0x0 REVERT JUMPDEST POP POP POP POP PUSH1 0x40 MLOAD RETURNDATASIZE PUSH1 0x1F NOT PUSH1 0x1F DUP3 ADD AND DUP3 ADD DUP1 PUSH1 0x40 MSTORE POP DUP2 ADD SWAP1 PUSH2 0x4A2 SWAP2 SWAP1 PUSH2 0x130C JUMP JUMPDEST POP PUSH32 0x0 PUSH20 0xFFFFFFFFFFFFFFFFFFFFFFFFFFFFFFFFFFFFFFFF AND PUSH4 0xA9059CBB CALLER DUP4 PUSH1 0x40 MLOAD DUP4 PUSH4 0xFFFFFFFF AND PUSH1 0xE0 SHL DUP2 MSTORE PUSH1 0x4 ADD PUSH2 0x4FE SWAP3 SWAP2 SWAP1 PUSH2 0x12AB JUMP JUMPDEST PUSH1 0x20 PUSH1 0x40 MLOAD DUP1 DUP4 SUB DUP2 PUSH1 0x0 DUP8 GAS CALL ISZERO DUP1 ISZERO PUSH2 0x51D JUMPI RETURNDATASIZE PUSH1 0x0 DUP1 RETURNDATACOPY RETURNDATASIZE PUSH1 0x0 REVERT JUMPDEST POP POP POP POP PUSH1 0x40 MLOAD RETURNDATASIZE PUSH1 0x1F NOT PUSH1 0x1F DUP3 ADD AND DUP3 ADD DUP1 PUSH1 0x40 MSTORE POP DUP2 ADD SWAP1 PUSH2 0x541 SWAP2 SWAP1 PUSH2 0x130C JUMP JUMPDEST POP POP POP POP POP POP JUMP JUMPDEST PUSH1 0x0 PUSH32 0x0 PUSH20 0xFFFFFFFFFFFFFFFFFFFFFFFFFFFFFFFFFFFFFFFF AND PUSH4 0x23B872DD CALLER ADDRESS DUP7 PUSH1 0x40 MLOAD DUP5 PUSH4 0xFFFFFFFF AND PUSH1 0xE0 SHL DUP2 MSTORE PUSH1 0x4 ADD PUSH2 0x5A8 SWAP4 SWAP3 SWAP2 SWAP1 PUSH2 0x1339 JUMP JUMPDEST PUSH1 0x20 PUSH1 0x40 MLOAD DUP1 DUP4 SUB DUP2 PUSH1 0x0 DUP8 GAS CALL ISZERO DUP1 ISZERO PUSH2 0x5C7 JUMPI RETURNDATASIZE PUSH1 0x0 DUP1 RETURNDATACOPY RETURNDATASIZE PUSH1 0x0 REVERT JUMPDEST POP POP POP POP PUSH1 0x40 MLOAD RETURNDATASIZE PUSH1 0x1F NOT PUSH1 0x1F DUP3 ADD AND DUP3 ADD DUP1 PUSH1 0x40 MSTORE POP DUP2 ADD SWAP1 PUSH2 0x5EB SWAP2 SWAP1 PUSH2 0x130C JUMP JUMPDEST POP PUSH32 0x0 PUSH20 0xFFFFFFFFFFFFFFFFFFFFFFFFFFFFFFFFFFFFFFFF AND PUSH4 0x23B872DD CALLER ADDRESS DUP6 PUSH1 0x40 MLOAD DUP5 PUSH4 0xFFFFFFFF AND PUSH1 0xE0 SHL DUP2 MSTORE PUSH1 0x4 ADD PUSH2 0x649 SWAP4 SWAP3 SWAP2 SWAP1 PUSH2 0x1339 JUMP JUMPDEST PUSH1 0x20 PUSH1 0x40 MLOAD DUP1 DUP4 SUB DUP2 PUSH1 0x0 DUP8 GAS CALL ISZERO DUP1 ISZERO PUSH2 0x668 JUMPI RETURNDATASIZE PUSH1 0x0 DUP1 RETURNDATACOPY RETURNDATASIZE PUSH1 0x0 REVERT JUMPDEST POP POP POP POP PUSH1 0x40 MLOAD RETURNDATASIZE PUSH1 0x1F NOT PUSH1 0x1F DUP3 ADD AND DUP3 ADD DUP1 PUSH1 0x40 MSTORE POP DUP2 ADD SWAP1 PUSH2 0x68C SWAP2 SWAP1 PUSH2 0x130C JUMP JUMPDEST POP PUSH1 0x0 DUP1 SLOAD GT DUP1 PUSH2 0x69F JUMPI POP PUSH1 0x0 PUSH1 0x1 SLOAD GT JUMPDEST ISZERO PUSH2 0x701 JUMPI DUP2 DUP4 PUSH2 0x6B0 SWAP2 SWAP1 PUSH2 0x1246 JUMP JUMPDEST PUSH1 0x1 SLOAD PUSH1 0x0 SLOAD PUSH2 0x6C0 SWAP2 SWAP1 PUSH2 0x1246 JUMP JUMPDEST EQ PUSH2 0x700 JUMPI PUSH1 0x40 MLOAD PUSH32 0x8C379A000000000000000000000000000000000000000000000000000000000 DUP2 MSTORE PUSH1 0x4 ADD PUSH2 0x6F7 SWAP1 PUSH2 0x13CD JUMP JUMPDEST PUSH1 0x40 MLOAD DUP1 SWAP2 SUB SWAP1 REVERT JUMPDEST JUMPDEST PUSH1 0x0 PUSH1 0x2 SLOAD EQ ISZERO PUSH2 0x727 JUMPI PUSH2 0x720 DUP3 DUP5 PUSH2 0x71B SWAP2 SWAP1 PUSH2 0x11BD JUMP JUMPDEST PUSH2 0xE31 JUMP JUMPDEST SWAP1 POP PUSH2 0x768 JUMP JUMPDEST PUSH2 0x765 PUSH1 0x0 SLOAD PUSH1 0x2 SLOAD DUP6 PUSH2 0x73B SWAP2 SWAP1 PUSH2 0x11BD JUMP JUMPDEST PUSH2 0x745 SWAP2 SWAP1 PUSH2 0x1246 JUMP JUMPDEST PUSH1 0x1 SLOAD PUSH1 0x2 SLOAD DUP6 PUSH2 0x756 SWAP2 SWAP1 PUSH2 0x11BD JUMP JUMPDEST PUSH2 0x760 SWAP2 SWAP1 PUSH2 0x1246 JUMP JUMPDEST PUSH2 0xEAB JUMP JUMPDEST SWAP1 POP JUMPDEST PUSH1 0x0 DUP2 GT PUSH2 0x7AB JUMPI PUSH1 0x40 MLOAD PUSH32 0x8C379A000000000000000000000000000000000000000000000000000000000 DUP2 MSTORE PUSH1 0x4 ADD PUSH2 0x7A2 SWAP1 PUSH2 0x1439 JUMP JUMPDEST PUSH1 0x40 MLOAD DUP1 SWAP2 SUB SWAP1 REVERT JUMPDEST PUSH2 0x7B5 CALLER DUP3 PUSH2 0xEC5 JUMP JUMPDEST PUSH2 0x8F1 PUSH32 0x0 PUSH20 0xFFFFFFFFFFFFFFFFFFFFFFFFFFFFFFFFFFFFFFFF AND PUSH4 0x70A08231 ADDRESS PUSH1 0x40 MLOAD DUP3 PUSH4 0xFFFFFFFF AND PUSH1 0xE0 SHL DUP2 MSTORE PUSH1 0x4 ADD PUSH2 0x811 SWAP2 SWAP1 PUSH2 0x1131 JUMP JUMPDEST PUSH1 0x20 PUSH1 0x40 MLOAD DUP1 DUP4 SUB DUP2 DUP7 GAS STATICCALL ISZERO DUP1 ISZERO PUSH2 0x82E JUMPI RETURNDATASIZE PUSH1 0x0 DUP1 RETURNDATACOPY RETURNDATASIZE PUSH1 0x0 REVERT JUMPDEST POP POP POP POP PUSH1 0x40 MLOAD RETURNDATASIZE PUSH1 0x1F NOT PUSH1 0x1F DUP3 ADD AND DUP3 ADD DUP1 PUSH1 0x40 MSTORE POP DUP2 ADD SWAP1 PUSH2 0x852 SWAP2 SWAP1 PUSH2 0x1161 JUMP JUMPDEST PUSH32 0x0 PUSH20 0xFFFFFFFFFFFFFFFFFFFFFFFFFFFFFFFFFFFFFFFF AND PUSH4 0x70A08231 ADDRESS PUSH1 0x40 MLOAD DUP3 PUSH4 0xFFFFFFFF AND PUSH1 0xE0 SHL DUP2 MSTORE PUSH1 0x4 ADD PUSH2 0x8AB SWAP2 SWAP1 PUSH2 0x1131 JUMP JUMPDEST PUSH1 0x20 PUSH1 0x40 MLOAD DUP1 DUP4 SUB DUP2 DUP7 GAS STATICCALL ISZERO DUP1 ISZERO PUSH2 0x8C8 JUMPI RETURNDATASIZE PUSH1 0x0 DUP1 RETURNDATACOPY RETURNDATASIZE PUSH1 0x0 REVERT JUMPDEST POP POP POP POP PUSH1 0x40 MLOAD RETURNDATASIZE PUSH1 0x1F NOT PUSH1 0x1F DUP3 ADD AND DUP3 ADD DUP1 PUSH1 0x40 MSTORE POP DUP2 ADD SWAP1 PUSH2 0x8EC SWAP2 SWAP1 PUSH2 0x1161 JUMP JUMPDEST PUSH2 0xE1F JUMP JUMPDEST SWAP3 SWAP2 POP POP JUMP JUMPDEST PUSH32 0x0 PUSH20 0xFFFFFFFFFFFFFFFFFFFFFFFFFFFFFFFFFFFFFFFF AND DUP3 PUSH20 0xFFFFFFFFFFFFFFFFFFFFFFFFFFFFFFFFFFFFFFFF AND EQ DUP1 PUSH2 0x99C JUMPI POP PUSH32 0x0 PUSH20 0xFFFFFFFFFFFFFFFFFFFFFFFFFFFFFFFFFFFFFFFF AND DUP3 PUSH20 0xFFFFFFFFFFFFFFFFFFFFFFFFFFFFFFFFFFFFFFFF AND EQ JUMPDEST PUSH2 0x9DB JUMPI PUSH1 0x40 MLOAD PUSH32 0x8C379A000000000000000000000000000000000000000000000000000000000 DUP2 MSTORE PUSH1 0x4 ADD PUSH2 0x9D2 SWAP1 PUSH2 0x14A5 JUMP JUMPDEST PUSH1 0x40 MLOAD DUP1 SWAP2 SUB SWAP1 REVERT JUMPDEST PUSH1 0x0 DUP2 GT PUSH2 0xA1E JUMPI PUSH1 0x40 MLOAD PUSH32 0x8C379A000000000000000000000000000000000000000000000000000000000 DUP2 MSTORE PUSH1 0x4 ADD PUSH2 0xA15 SWAP1 PUSH2 0x1511 JUMP JUMPDEST PUSH1 0x40 MLOAD DUP1 SWAP2 SUB SWAP1 REVERT JUMPDEST PUSH1 0x0 PUSH32 0x0 PUSH20 0xFFFFFFFFFFFFFFFFFFFFFFFFFFFFFFFFFFFFFFFF AND DUP4 PUSH20 0xFFFFFFFFFFFFFFFFFFFFFFFFFFFFFFFFFFFFFFFF AND EQ SWAP1 POP PUSH1 0x0 DUP1 PUSH1 0x0 DUP1 DUP5 PUSH2 0xAC9 JUMPI PUSH32 0x0 PUSH32 0x0 PUSH1 0x1 SLOAD PUSH1 0x0 SLOAD PUSH2 0xB12 JUMP JUMPDEST PUSH32 0x0 PUSH32 0x0 PUSH1 0x0 SLOAD PUSH1 0x1 SLOAD JUMPDEST SWAP4 POP SWAP4 POP SWAP4 POP SWAP4 POP DUP4 PUSH20 0xFFFFFFFFFFFFFFFFFFFFFFFFFFFFFFFFFFFFFFFF AND PUSH4 0x23B872DD CALLER ADDRESS DUP10 PUSH1 0x40 MLOAD DUP5 PUSH4 0xFFFFFFFF AND PUSH1 0xE0 SHL DUP2 MSTORE PUSH1 0x4 ADD PUSH2 0xB57 SWAP4 SWAP3 SWAP2 SWAP1 PUSH2 0x1339 JUMP JUMPDEST PUSH1 0x20 PUSH1 0x40 MLOAD DUP1 DUP4 SUB DUP2 PUSH1 0x0 DUP8 GAS CALL ISZERO DUP1 ISZERO PUSH2 0xB76 JUMPI RETURNDATASIZE PUSH1 0x0 DUP1 RETURNDATACOPY RETURNDATASIZE PUSH1 0x0 REVERT JUMPDEST POP POP POP POP PUSH1 0x40 MLOAD RETURNDATASIZE PUSH1 0x1F NOT PUSH1 0x1F DUP3 ADD AND DUP3 ADD DUP1 PUSH1 0x40 MSTORE POP DUP2 ADD SWAP1 PUSH2 0xB9A SWAP2 SWAP1 PUSH2 0x130C JUMP JUMPDEST POP PUSH1 0x0 PUSH2 0x3E8 PUSH2 0x3E5 DUP9 PUSH2 0xBAE SWAP2 SWAP1 PUSH2 0x11BD JUMP JUMPDEST PUSH2 0xBB8 SWAP2 SWAP1 PUSH2 0x1246 JUMP JUMPDEST SWAP1 POP PUSH1 0x0 DUP2 DUP5 PUSH2 0xBC8 SWAP2 SWAP1 PUSH2 0x1531 JUMP JUMPDEST DUP3 DUP5 PUSH2 0xBD4 SWAP2 SWAP1 PUSH2 0x11BD JUMP JUMPDEST PUSH2 0xBDE SWAP2 SWAP1 PUSH2 0x1246 JUMP JUMPDEST SWAP1 POP DUP5 PUSH20 0xFFFFFFFFFFFFFFFFFFFFFFFFFFFFFFFFFFFFFFFF AND PUSH4 0xA9059CBB CALLER DUP4 PUSH1 0x40 MLOAD DUP4 PUSH4 0xFFFFFFFF AND PUSH1 0xE0 SHL DUP2 MSTORE PUSH1 0x4 ADD PUSH2 0xC1B SWAP3 SWAP2 SWAP1 PUSH2 0x12AB JUMP JUMPDEST PUSH1 0x20 PUSH1 0x40 MLOAD DUP1 DUP4 SUB DUP2 PUSH1 0x0 DUP8 GAS CALL ISZERO DUP1 ISZERO PUSH2 0xC3A JUMPI RETURNDATASIZE PUSH1 0x0 DUP1 RETURNDATACOPY RETURNDATASIZE PUSH1 0x0 REVERT JUMPDEST POP POP POP POP PUSH1 0x40 MLOAD RETURNDATASIZE PUSH1 0x1F NOT PUSH1 0x1F DUP3 ADD AND DUP3 ADD DUP1 PUSH1 0x40 MSTORE POP DUP2 ADD SWAP1 PUSH2 0xC5E SWAP2 SWAP1 PUSH2 0x130C JUMP JUMPDEST POP PUSH2 0xD9B PUSH32 0x0 PUSH20 0xFFFFFFFFFFFFFFFFFFFFFFFFFFFFFFFFFFFFFFFF AND PUSH4 0x70A08231 ADDRESS PUSH1 0x40 MLOAD DUP3 PUSH4 0xFFFFFFFF AND PUSH1 0xE0 SHL DUP2 MSTORE PUSH1 0x4 ADD PUSH2 0xCBB SWAP2 SWAP1 PUSH2 0x1131 JUMP JUMPDEST PUSH1 0x20 PUSH1 0x40 MLOAD DUP1 DUP4 SUB DUP2 DUP7 GAS STATICCALL ISZERO DUP1 ISZERO PUSH2 0xCD8 JUMPI RETURNDATASIZE PUSH1 0x0 DUP1 RETURNDATACOPY RETURNDATASIZE PUSH1 0x0 REVERT JUMPDEST POP POP POP POP PUSH1 0x40 MLOAD RETURNDATASIZE PUSH1 0x1F NOT PUSH1 0x1F DUP3 ADD AND DUP3 ADD DUP1 PUSH1 0x40 MSTORE POP DUP2 ADD SWAP1 PUSH2 0xCFC SWAP2 SWAP1 PUSH2 0x1161 JUMP JUMPDEST PUSH32 0x0 PUSH20 0xFFFFFFFFFFFFFFFFFFFFFFFFFFFFFFFFFFFFFFFF AND PUSH4 0x70A08231 ADDRESS PUSH1 0x40 MLOAD DUP3 PUSH4 0xFFFFFFFF AND PUSH1 0xE0 SHL DUP2 MSTORE PUSH1 0x4 ADD PUSH2 0xD55 SWAP2 SWAP1 PUSH2 0x1131 JUMP JUMPDEST PUSH1 0x20 PUSH1 0x40 MLOAD DUP1 DUP4 SUB DUP2 DUP7 GAS STATICCALL ISZERO DUP1 ISZERO PUSH2 0xD72 JUMPI RETURNDATASIZE PUSH1 0x0 DUP1 RETURNDATACOPY RETURNDATASIZE PUSH1 0x0 REVERT JUMPDEST POP POP POP POP PUSH1 0x40 MLOAD RETURNDATASIZE PUSH1 0x1F NOT PUSH1 0x1F DUP3 ADD AND DUP3 ADD DUP1 PUSH1 0x40 MSTORE POP DUP2 ADD SWAP1 PUSH2 0xD96 SWAP2 SWAP1 PUSH2 0x1161 JUMP JUMPDEST PUSH2 0xE1F JUMP JUMPDEST POP POP POP POP POP POP POP POP POP JUMP JUMPDEST PUSH1 0x0 SLOAD DUP2 JUMP JUMPDEST DUP1 PUSH1 0x3 PUSH1 0x0 DUP5 PUSH20 0xFFFFFFFFFFFFFFFFFFFFFFFFFFFFFFFFFFFFFFFF AND PUSH20 0xFFFFFFFFFFFFFFFFFFFFFFFFFFFFFFFFFFFFFFFF AND DUP2 MSTORE PUSH1 0x20 ADD SWAP1 DUP2 MSTORE PUSH1 0x20 ADD PUSH1 0x0 KECCAK256 PUSH1 0x0 DUP3 DUP3 SLOAD PUSH2 0xDFB SWAP2 SWAP1 PUSH2 0x1277 JUMP JUMPDEST SWAP3 POP POP DUP2 SWAP1 SSTORE POP DUP1 PUSH1 0x2 PUSH1 0x0 DUP3 DUP3 SLOAD PUSH2 0xE14 SWAP2 SWAP1 PUSH2 0x1277 JUMP JUMPDEST SWAP3 POP POP DUP2 SWAP1 SSTORE POP POP POP JUMP JUMPDEST DUP2 PUSH1 0x0 DUP2 SWAP1 SSTORE POP DUP1 PUSH1 0x1 DUP2 SWAP1 SSTORE POP POP POP JUMP JUMPDEST PUSH1 0x0 PUSH1 0x3 DUP3 GT ISZERO PUSH2 0xE98 JUMPI DUP2 SWAP1 POP PUSH1 0x0 PUSH1 0x1 PUSH1 0x2 DUP5 PUSH2 0xE50 SWAP2 SWAP1 PUSH2 0x1246 JUMP JUMPDEST PUSH2 0xE5A SWAP2 SWAP1 PUSH2 0x1531 JUMP JUMPDEST SWAP1 POP JUMPDEST DUP2 DUP2 LT ISZERO PUSH2 0xE92 JUMPI DUP1 SWAP2 POP PUSH1 0x2 DUP2 DUP3 DUP6 PUSH2 0xE77 SWAP2 SWAP1 PUSH2 0x1246 JUMP JUMPDEST PUSH2 0xE81 SWAP2 SWAP1 PUSH2 0x1531 JUMP JUMPDEST PUSH2 0xE8B SWAP2 SWAP1 PUSH2 0x1246 JUMP JUMPDEST SWAP1 POP PUSH2 0xE5D JUMP JUMPDEST POP PUSH2 0xEA6 JUMP JUMPDEST PUSH1 0x0 DUP3 EQ PUSH2 0xEA5 JUMPI PUSH1 0x1 SWAP1 POP JUMPDEST JUMPDEST SWAP2 SWAP1 POP JUMP JUMPDEST PUSH1 0x0 DUP2 DUP4 GT ISZERO PUSH2 0xEBB JUMPI DUP2 PUSH2 0xEBD JUMP JUMPDEST DUP3 JUMPDEST SWAP1 POP SWAP3 SWAP2 POP POP JUMP JUMPDEST DUP1 PUSH1 0x3 PUSH1 0x0 DUP5 PUSH20 0xFFFFFFFFFFFFFFFFFFFFFFFFFFFFFFFFFFFFFFFF AND PUSH20 0xFFFFFFFFFFFFFFFFFFFFFFFFFFFFFFFFFFFFFFFF AND DUP2 MSTORE PUSH1 0x20 ADD SWAP1 DUP2 MSTORE PUSH1 0x20 ADD PUSH1 0x0 KECCAK256 PUSH1 0x0 DUP3 DUP3 SLOAD PUSH2 0xF14 SWAP2 SWAP1 PUSH2 0x1531 JUMP JUMPDEST SWAP3 POP POP DUP2 SWAP1 SSTORE POP DUP1 PUSH1 0x2 PUSH1 0x0 DUP3 DUP3 SLOAD PUSH2 0xF2D SWAP2 SWAP1 PUSH2 0x1531 JUMP JUMPDEST SWAP3 POP POP DUP2 SWAP1 SSTORE POP POP POP JUMP JUMPDEST PUSH1 0x0 PUSH20 0xFFFFFFFFFFFFFFFFFFFFFFFFFFFFFFFFFFFFFFFF DUP3 AND SWAP1 POP SWAP2 SWAP1 POP JUMP JUMPDEST PUSH1 0x0 DUP2 SWAP1 POP SWAP2 SWAP1 POP JUMP JUMPDEST PUSH1 0x0 PUSH2 0xF7D PUSH2 0xF78 PUSH2 0xF73 DUP5 PUSH2 0xF38 JUMP JUMPDEST PUSH2 0xF58 JUMP JUMPDEST PUSH2 0xF38 JUMP JUMPDEST SWAP1 POP SWAP2 SWAP1 POP JUMP JUMPDEST PUSH1 0x0 PUSH2 0xF8F DUP3 PUSH2 0xF62 JUMP JUMPDEST SWAP1 POP SWAP2 SWAP1 POP JUMP JUMPDEST PUSH1 0x0 PUSH2 0xFA1 DUP3 PUSH2 0xF84 JUMP JUMPDEST SWAP1 POP SWAP2 SWAP1 POP JUMP JUMPDEST PUSH2 0xFB1 DUP2 PUSH2 0xF96 JUMP JUMPDEST DUP3 MSTORE POP POP JUMP JUMPDEST PUSH1 0x0 PUSH1 0x20 DUP3 ADD SWAP1 POP PUSH2 0xFCC PUSH1 0x0 DUP4 ADD DUP5 PUSH2 0xFA8 JUMP JUMPDEST SWAP3 SWAP2 POP POP JUMP JUMPDEST PUSH1 0x0 DUP2 SWAP1 POP SWAP2 SWAP1 POP JUMP JUMPDEST PUSH2 0xFE5 DUP2 PUSH2 0xFD2 JUMP JUMPDEST DUP3 MSTORE POP POP JUMP JUMPDEST PUSH1 0x0 PUSH1 0x20 DUP3 ADD SWAP1 POP PUSH2 0x1000 PUSH1 0x0 DUP4 ADD DUP5 PUSH2 0xFDC JUMP JUMPDEST SWAP3 SWAP2 POP POP JUMP JUMPDEST PUSH1 0x0 DUP1 REVERT JUMPDEST PUSH1 0x0 PUSH2 0x1016 DUP3 PUSH2 0xF38 JUMP JUMPDEST SWAP1 POP SWAP2 SWAP1 POP JUMP JUMPDEST PUSH2 0x1026 DUP2 PUSH2 0x100B JUMP JUMPDEST DUP2 EQ PUSH2 0x1031 JUMPI PUSH1 0x0 DUP1 REVERT JUMPDEST POP JUMP JUMPDEST PUSH1 0x0 DUP2 CALLDATALOAD SWAP1 POP PUSH2 0x1043 DUP2 PUSH2 0x101D JUMP JUMPDEST SWAP3 SWAP2 POP POP JUMP JUMPDEST PUSH1 0x0 PUSH1 0x20 DUP3 DUP5 SUB SLT ISZERO PUSH2 0x105F JUMPI PUSH2 0x105E PUSH2 0x1006 JUMP JUMPDEST JUMPDEST PUSH1 0x0 PUSH2 0x106D DUP5 DUP3 DUP6 ADD PUSH2 0x1034 JUMP JUMPDEST SWAP2 POP POP SWAP3 SWAP2 POP POP JUMP JUMPDEST PUSH2 0x107F DUP2 PUSH2 0xFD2 JUMP JUMPDEST DUP2 EQ PUSH2 0x108A JUMPI PUSH1 0x0 DUP1 REVERT JUMPDEST POP JUMP JUMPDEST PUSH1 0x0 DUP2 CALLDATALOAD SWAP1 POP PUSH2 0x109C DUP2 PUSH2 0x1076 JUMP JUMPDEST SWAP3 SWAP2 POP POP JUMP JUMPDEST PUSH1 0x0 DUP1 PUSH1 0x40 DUP4 DUP6 SUB SLT ISZERO PUSH2 0x10B9 JUMPI PUSH2 0x10B8 PUSH2 0x1006 JUMP JUMPDEST JUMPDEST PUSH1 0x0 PUSH2 0x10C7 DUP6 DUP3 DUP7 ADD PUSH2 0x108D JUMP JUMPDEST SWAP3 POP POP PUSH1 0x20 PUSH2 0x10D8 DUP6 DUP3 DUP7 ADD PUSH2 0x108D JUMP JUMPDEST SWAP2 POP POP SWAP3 POP SWAP3 SWAP1 POP JUMP JUMPDEST PUSH1 0x0 DUP1 PUSH1 0x40 DUP4 DUP6 SUB SLT ISZERO PUSH2 0x10F9 JUMPI PUSH2 0x10F8 PUSH2 0x1006 JUMP JUMPDEST JUMPDEST PUSH1 0x0 PUSH2 0x1107 DUP6 DUP3 DUP7 ADD PUSH2 0x1034 JUMP JUMPDEST SWAP3 POP POP PUSH1 0x20 PUSH2 0x1118 DUP6 DUP3 DUP7 ADD PUSH2 0x108D JUMP JUMPDEST SWAP2 POP POP SWAP3 POP SWAP3 SWAP1 POP JUMP JUMPDEST PUSH2 0x112B DUP2 PUSH2 0x100B JUMP JUMPDEST DUP3 MSTORE POP POP JUMP JUMPDEST PUSH1 0x0 PUSH1 0x20 DUP3 ADD SWAP1 POP PUSH2 0x1146 PUSH1 0x0 DUP4 ADD DUP5 PUSH2 0x1122 JUMP JUMPDEST SWAP3 SWAP2 POP POP JUMP JUMPDEST PUSH1 0x0 DUP2 MLOAD SWAP1 POP PUSH2 0x115B DUP2 PUSH2 0x1076 JUMP JUMPDEST SWAP3 SWAP2 POP POP JUMP JUMPDEST PUSH1 0x0 PUSH1 0x20 DUP3 DUP5 SUB SLT ISZERO PUSH2 0x1177 JUMPI PUSH2 0x1176 PUSH2 0x1006 JUMP JUMPDEST JUMPDEST PUSH1 0x0 PUSH2 0x1185 DUP5 DUP3 DUP6 ADD PUSH2 0x114C JUMP JUMPDEST SWAP2 POP POP SWAP3 SWAP2 POP POP JUMP JUMPDEST PUSH32 0x4E487B7100000000000000000000000000000000000000000000000000000000 PUSH1 0x0 MSTORE PUSH1 0x11 PUSH1 0x4 MSTORE PUSH1 0x24 PUSH1 0x0 REVERT JUMPDEST PUSH1 0x0 PUSH2 0x11C8 DUP3 PUSH2 0xFD2 JUMP JUMPDEST SWAP2 POP PUSH2 0x11D3 DUP4 PUSH2 0xFD2 JUMP JUMPDEST SWAP3 POP DUP2 PUSH32 0xFFFFFFFFFFFFFFFFFFFFFFFFFFFFFFFFFFFFFFFFFFFFFFFFFFFFFFFFFFFFFFFF DIV DUP4 GT DUP3 ISZERO ISZERO AND ISZERO PUSH2 0x120C JUMPI PUSH2 0x120B PUSH2 0x118E JUMP JUMPDEST JUMPDEST DUP3 DUP3 MUL SWAP1 POP SWAP3 SWAP2 POP POP JUMP JUMPDEST PUSH32 0x4E487B7100000000000000000000000000000000000000000000000000000000 PUSH1 0x0 MSTORE PUSH1 0x12 PUSH1 0x4 MSTORE PUSH1 0x24 PUSH1 0x0 REVERT JUMPDEST PUSH1 0x0 PUSH2 0x1251 DUP3 PUSH2 0xFD2 JUMP JUMPDEST SWAP2 POP PUSH2 0x125C DUP4 PUSH2 0xFD2 JUMP JUMPDEST SWAP3 POP DUP3 PUSH2 0x126C JUMPI PUSH2 0x126B PUSH2 0x1217 JUMP JUMPDEST JUMPDEST DUP3 DUP3 DIV SWAP1 POP SWAP3 SWAP2 POP POP JUMP JUMPDEST PUSH1 0x0 PUSH2 0x1282 DUP3 PUSH2 0xFD2 JUMP JUMPDEST SWAP2 POP PUSH2 0x128D DUP4 PUSH2 0xFD2 JUMP JUMPDEST SWAP3 POP DUP3 DUP3 LT ISZERO PUSH2 0x12A0 JUMPI PUSH2 0x129F PUSH2 0x118E JUMP JUMPDEST JUMPDEST DUP3 DUP3 SUB SWAP1 POP SWAP3 SWAP2 POP POP JUMP JUMPDEST PUSH1 0x0 PUSH1 0x40 DUP3 ADD SWAP1 POP PUSH2 0x12C0 PUSH1 0x0 DUP4 ADD DUP6 PUSH2 0x1122 JUMP JUMPDEST PUSH2 0x12CD PUSH1 0x20 DUP4 ADD DUP5 PUSH2 0xFDC JUMP JUMPDEST SWAP4 SWAP3 POP POP POP JUMP JUMPDEST PUSH1 0x0 DUP2 ISZERO ISZERO SWAP1 POP SWAP2 SWAP1 POP JUMP JUMPDEST PUSH2 0x12E9 DUP2 PUSH2 0x12D4 JUMP JUMPDEST DUP2 EQ PUSH2 0x12F4 JUMPI PUSH1 0x0 DUP1 REVERT JUMPDEST POP JUMP JUMPDEST PUSH1 0x0 DUP2 MLOAD SWAP1 POP PUSH2 0x1306 DUP2 PUSH2 0x12E0 JUMP JUMPDEST SWAP3 SWAP2 POP POP JUMP JUMPDEST PUSH1 0x0 PUSH1 0x20 DUP3 DUP5 SUB SLT ISZERO PUSH2 0x1322 JUMPI PUSH2 0x1321 PUSH2 0x1006 JUMP JUMPDEST JUMPDEST PUSH1 0x0 PUSH2 0x1330 DUP5 DUP3 DUP6 ADD PUSH2 0x12F7 JUMP JUMPDEST SWAP2 POP POP SWAP3 SWAP2 POP POP JUMP JUMPDEST PUSH1 0x0 PUSH1 0x60 DUP3 ADD SWAP1 POP PUSH2 0x134E PUSH1 0x0 DUP4 ADD DUP7 PUSH2 0x1122 JUMP JUMPDEST PUSH2 0x135B PUSH1 0x20 DUP4 ADD DUP6 PUSH2 0x1122 JUMP JUMPDEST PUSH2 0x1368 PUSH1 0x40 DUP4 ADD DUP5 PUSH2 0xFDC JUMP JUMPDEST SWAP5 SWAP4 POP POP POP POP JUMP JUMPDEST PUSH1 0x0 DUP3 DUP3 MSTORE PUSH1 0x20 DUP3 ADD SWAP1 POP SWAP3 SWAP2 POP POP JUMP JUMPDEST PUSH32 0x64792F647820213D20592F580000000000000000000000000000000000000000 PUSH1 0x0 DUP3 ADD MSTORE POP JUMP JUMPDEST PUSH1 0x0 PUSH2 0x13B7 PUSH1 0xC DUP4 PUSH2 0x1370 JUMP JUMPDEST SWAP2 POP PUSH2 0x13C2 DUP3 PUSH2 0x1381 JUMP JUMPDEST PUSH1 0x20 DUP3 ADD SWAP1 POP SWAP2 SWAP1 POP JUMP JUMPDEST PUSH1 0x0 PUSH1 0x20 DUP3 ADD SWAP1 POP DUP2 DUP2 SUB PUSH1 0x0 DUP4 ADD MSTORE PUSH2 0x13E6 DUP2 PUSH2 0x13AA JUMP JUMPDEST SWAP1 POP SWAP2 SWAP1 POP JUMP JUMPDEST PUSH32 0x536861726573203D203000000000000000000000000000000000000000000000 PUSH1 0x0 DUP3 ADD MSTORE POP JUMP JUMPDEST PUSH1 0x0 PUSH2 0x1423 PUSH1 0xA DUP4 PUSH2 0x1370 JUMP JUMPDEST SWAP2 POP PUSH2 0x142E DUP3 PUSH2 0x13ED JUMP JUMPDEST PUSH1 0x20 DUP3 ADD SWAP1 POP SWAP2 SWAP1 POP JUMP JUMPDEST PUSH1 0x0 PUSH1 0x20 DUP3 ADD SWAP1 POP DUP2 DUP2 SUB PUSH1 0x0 DUP4 ADD MSTORE PUSH2 0x1452 DUP2 PUSH2 0x1416 JUMP JUMPDEST SWAP1 POP SWAP2 SWAP1 POP JUMP JUMPDEST PUSH32 0x496E76616C696420546F6B656E20416464726573730000000000000000000000 PUSH1 0x0 DUP3 ADD MSTORE POP JUMP JUMPDEST PUSH1 0x0 PUSH2 0x148F PUSH1 0x15 DUP4 PUSH2 0x1370 JUMP JUMPDEST SWAP2 POP PUSH2 0x149A DUP3 PUSH2 0x1459 JUMP JUMPDEST PUSH1 0x20 DUP3 ADD SWAP1 POP SWAP2 SWAP1 POP JUMP JUMPDEST PUSH1 0x0 PUSH1 0x20 DUP3 ADD SWAP1 POP DUP2 DUP2 SUB PUSH1 0x0 DUP4 ADD MSTORE PUSH2 0x14BE DUP2 PUSH2 0x1482 JUMP JUMPDEST SWAP1 POP SWAP2 SWAP1 POP JUMP JUMPDEST PUSH32 0x416D6F756E742073686F756C642062652067726561746572207468616E203000 PUSH1 0x0 DUP3 ADD MSTORE POP JUMP JUMPDEST PUSH1 0x0 PUSH2 0x14FB PUSH1 0x1F DUP4 PUSH2 0x1370 JUMP JUMPDEST SWAP2 POP PUSH2 0x1506 DUP3 PUSH2 0x14C5 JUMP JUMPDEST PUSH1 0x20 DUP3 ADD SWAP1 POP SWAP2 SWAP1 POP JUMP JUMPDEST PUSH1 0x0 PUSH1 0x20 DUP3 ADD SWAP1 POP DUP2 DUP2 SUB PUSH1 0x0 DUP4 ADD MSTORE PUSH2 0x152A DUP2 PUSH2 0x14EE JUMP JUMPDEST SWAP1 POP SWAP2 SWAP1 POP JUMP JUMPDEST PUSH1 0x0 PUSH2 0x153C DUP3 PUSH2 0xFD2 JUMP JUMPDEST SWAP2 POP PUSH2 0x1547 DUP4 PUSH2 0xFD2 JUMP JUMPDEST SWAP3 POP DUP3 PUSH32 0xFFFFFFFFFFFFFFFFFFFFFFFFFFFFFFFFFFFFFFFFFFFFFFFFFFFFFFFFFFFFFFFF SUB DUP3 GT ISZERO PUSH2 0x157C JUMPI PUSH2 0x157B PUSH2 0x118E JUMP JUMPDEST JUMPDEST DUP3 DUP3 ADD SWAP1 POP SWAP3 SWAP2 POP POP JUMP INVALID LOG2 PUSH5 0x6970667358 0x22 SLT KECCAK256 DIFFICULTY SWAP5 0xC2 SWAP13 SLT PUSH28 0xE4C17B95540D037E473B36C3A670C718A6137481E474D1144F3C6473 PUSH16 0x6C634300080C00330000000000000000 "},"methodIdentifiers":{"addLiquidity(uint256,uint256)":"9cd441da","removeLiquidity()":"67b9a286","reserveA()":"dc5fa6c5","reserveB()":"19e36f3b","sharesOfIndividual(address)":"5f376241","swapTokens(address,uint256)":"a114398d","tokenA()":"0fc63d10","tokenB()":"5f64b55b","totalShares()":"3a98ef39"}}}}}