{
  "_format": "hh-sol-artifact-1",
  "contractName": "AnyxSwapCS",
  "sourceName": "contracts/ConstantSumAMM.sol",
  "abi": [
    {
      "inputs": [
        {
          "internalType": "address",
          "name": "_tokenA",
          "type": "address"
        },
        {
          "internalType": "address",
          "name": "_tokenB",
          "type": "address"
        }
      ],
      "stateMutability": "nonpayable",
      "type": "constructor"
    },
    {
      "inputs": [
        {
          "internalType": "uint256",
          "name": "amountA",
          "type": "uint256"
        },
        {
          "internalType": "uint256",
          "name": "amountB",
          "type": "uint256"
        }
      ],
      "name": "addLiquidity",
      "outputs": [
        {
          "internalType": "uint256",
          "name": "shares",
          "type": "uint256"
        }
      ],
      "stateMutability": "nonpayable",
      "type": "function"
    },
    {
      "inputs": [
        {
          "internalType": "address",
          "name": "",
          "type": "address"
        }
      ],
      "name": "individualShares",
      "outputs": [
        {
          "internalType": "uint256",
          "name": "",
          "type": "uint256"
        }
      ],
      "stateMutability": "view",
      "type": "function"
    },
    {
      "inputs": [],
      "name": "removeLiquidity",
      "outputs": [],
      "stateMutability": "nonpayable",
      "type": "function"
    },
    {
      "inputs": [],
      "name": "s_reserveA",
      "outputs": [
        {
          "internalType": "uint256",
          "name": "",
          "type": "uint256"
        }
      ],
      "stateMutability": "view",
      "type": "function"
    },
    {
      "inputs": [],
      "name": "s_reserveB",
      "outputs": [
        {
          "internalType": "uint256",
          "name": "",
          "type": "uint256"
        }
      ],
      "stateMutability": "view",
      "type": "function"
    },
    {
      "inputs": [],
      "name": "s_totalSharesMinted",
      "outputs": [
        {
          "internalType": "uint256",
          "name": "",
          "type": "uint256"
        }
      ],
      "stateMutability": "view",
      "type": "function"
    },
    {
      "inputs": [
        {
          "internalType": "address",
          "name": "_tokenIn",
          "type": "address"
        },
        {
          "internalType": "uint256",
          "name": "_amountIn",
          "type": "uint256"
        }
      ],
      "name": "swapTokens",
      "outputs": [],
      "stateMutability": "nonpayable",
      "type": "function"
    },
    {
      "inputs": [],
      "name": "tokenA",
      "outputs": [
        {
          "internalType": "contract IERC20",
          "name": "",
          "type": "address"
        }
      ],
      "stateMutability": "view",
      "type": "function"
    },
    {
      "inputs": [],
      "name": "tokenB",
      "outputs": [
        {
          "internalType": "contract IERC20",
          "name": "",
          "type": "address"
        }
      ],
      "stateMutability": "view",
      "type": "function"
    }
  ],
  "bytecode": "0x60c06040523480156200001157600080fd5b50604051620016e6380380620016e6833981810160405281019062000037919062000111565b8173ffffffffffffffffffffffffffffffffffffffff1660808173ffffffffffffffffffffffffffffffffffffffff16815250508073ffffffffffffffffffffffffffffffffffffffff1660a08173ffffffffffffffffffffffffffffffffffffffff1681525050505062000158565b600080fd5b600073ffffffffffffffffffffffffffffffffffffffff82169050919050565b6000620000d982620000ac565b9050919050565b620000eb81620000cc565b8114620000f757600080fd5b50565b6000815190506200010b81620000e0565b92915050565b600080604083850312156200012b576200012a620000a7565b5b60006200013b85828601620000fa565b92505060206200014e85828601620000fa565b9150509250929050565b60805160a0516114ff620001e7600039600081816101e6015281816102ee015281816104b901528181610608015281816107e7015281816108e101528181610a110152610a7f0152600081816101b6015281816102500152818161041a015281816105670152818161074d0152818161088c015281816109b501528181610a320152610a5e01526114ff6000f3fe608060405234801561001057600080fd5b50600436106100935760003560e01c806367b9a2861161006657806367b9a286146101105780638fab31231461011a5780639cd441da14610138578063a114398d14610168578063f7d3200f1461018457610093565b80630fc63d10146100985780632dd8979a146100b65780634e5c5db5146100d45780635f64b55b146100f2575b600080fd5b6100a06101b4565b6040516100ad9190610e6b565b60405180910390f35b6100be6101d8565b6040516100cb9190610e9f565b60405180910390f35b6100dc6101de565b6040516100e99190610e9f565b60405180910390f35b6100fa6101e4565b6040516101079190610e6b565b60405180910390f35b610118610208565b005b61012261055d565b60405161012f9190610e9f565b60405180910390f35b610152600480360381019061014d9190610eeb565b610563565b60405161015f9190610e9f565b60405180910390f35b610182600480360381019061017d9190610f69565b61088a565b005b61019e60048036038101906101999190610fa9565b610c24565b6040516101ab9190610e9f565b60405180910390f35b7f000000000000000000000000000000000000000000000000000000000000000081565b60015481565b60005481565b7f000000000000000000000000000000000000000000000000000000000000000081565b6000600360003373ffffffffffffffffffffffffffffffffffffffff1673ffffffffffffffffffffffffffffffffffffffff16815260200190815260200160002054905060007f000000000000000000000000000000000000000000000000000000000000000073ffffffffffffffffffffffffffffffffffffffff166370a08231306040518263ffffffff1660e01b81526004016102a79190610fe5565b602060405180830381865afa1580156102c4573d6000803e3d6000fd5b505050506040513d601f19601f820116820180604052508101906102e89190611015565b905060007f000000000000000000000000000000000000000000000000000000000000000073ffffffffffffffffffffffffffffffffffffffff166370a08231306040518263ffffffff1660e01b81526004016103459190610fe5565b602060405180830381865afa158015610362573d6000803e3d6000fd5b505050506040513d601f19601f820116820180604052508101906103869190611015565b905060006002548460005461039b9190611071565b6103a591906110fa565b90506103cf6040518060600160405280602681526020016114a46026913960005486600254610c3c565b6000600254856001546103e29190611071565b6103ec91906110fa565b90506103f83386610cde565b6104188285610407919061112b565b8285610413919061112b565b610d3e565b7f000000000000000000000000000000000000000000000000000000000000000073ffffffffffffffffffffffffffffffffffffffff1663a9059cbb33846040518363ffffffff1660e01b815260040161047392919061115f565b6020604051808303816000875af1158015610492573d6000803e3d6000fd5b505050506040513d601f19601f820116820180604052508101906104b691906111c0565b507f000000000000000000000000000000000000000000000000000000000000000073ffffffffffffffffffffffffffffffffffffffff1663a9059cbb33836040518363ffffffff1660e01b815260040161051292919061115f565b6020604051808303816000875af1158015610531573d6000803e3d6000fd5b505050506040513d601f19601f8201168201806040525081019061055591906111c0565b505050505050565b60025481565b60007f000000000000000000000000000000000000000000000000000000000000000073ffffffffffffffffffffffffffffffffffffffff166323b872dd3330866040518463ffffffff1660e01b81526004016105c2939291906111ed565b6020604051808303816000875af11580156105e1573d6000803e3d6000fd5b505050506040513d601f19601f8201168201806040525081019061060591906111c0565b507f000000000000000000000000000000000000000000000000000000000000000073ffffffffffffffffffffffffffffffffffffffff166323b872dd3330856040518463ffffffff1660e01b8152600401610663939291906111ed565b6020604051808303816000875af1158015610682573d6000803e3d6000fd5b505050506040513d601f19601f820116820180604052508101906106a691906111c0565b50600060025414156106c55781836106be9190611224565b90506106fb565b6001546000546106d59190611224565b60025483856106e49190611224565b6106ee9190611071565b6106f891906110fa565b90505b6000811161073e576040517f08c379a0000000000000000000000000000000000000000000000000000000008152600401610735906112d7565b60405180910390fd5b6107483382610d50565b6108847f000000000000000000000000000000000000000000000000000000000000000073ffffffffffffffffffffffffffffffffffffffff166370a08231306040518263ffffffff1660e01b81526004016107a49190610fe5565b602060405180830381865afa1580156107c1573d6000803e3d6000fd5b505050506040513d601f19601f820116820180604052508101906107e59190611015565b7f000000000000000000000000000000000000000000000000000000000000000073ffffffffffffffffffffffffffffffffffffffff166370a08231306040518263ffffffff1660e01b815260040161083e9190610fe5565b602060405180830381865afa15801561085b573d6000803e3d6000fd5b505050506040513d601f19601f8201168201806040525081019061087f9190611015565b610d3e565b92915050565b7f000000000000000000000000000000000000000000000000000000000000000073ffffffffffffffffffffffffffffffffffffffff168273ffffffffffffffffffffffffffffffffffffffff16148061092f57507f000000000000000000000000000000000000000000000000000000000000000073ffffffffffffffffffffffffffffffffffffffff168273ffffffffffffffffffffffffffffffffffffffff16145b61096e576040517f08c379a000000000000000000000000000000000000000000000000000000000815260040161096590611343565b60405180910390fd5b600081116109b1576040517f08c379a00000000000000000000000000000000000000000000000000000000081526004016109a8906113af565b60405180910390fd5b60007f000000000000000000000000000000000000000000000000000000000000000073ffffffffffffffffffffffffffffffffffffffff168373ffffffffffffffffffffffffffffffffffffffff1614905060008060008084610a5c577f00000000000000000000000000000000000000000000000000000000000000007f0000000000000000000000000000000000000000000000000000000000000000600154600054610aa5565b7f00000000000000000000000000000000000000000000000000000000000000007f00000000000000000000000000000000000000000000000000000000000000006000546001545b93509350935093508373ffffffffffffffffffffffffffffffffffffffff166323b872dd3330896040518463ffffffff1660e01b8152600401610aea939291906111ed565b6020604051808303816000875af1158015610b09573d6000803e3d6000fd5b505050506040513d601f19601f82011682018060405250810190610b2d91906111c0565b5060006103e86103e588610b419190611071565b610b4b91906110fa565b905060008087610b72578284610b61919061112b565b8986610b6d9190611224565b610b8b565b8885610b7e9190611224565b8385610b8a919061112b565b5b91509150610b998282610d3e565b8573ffffffffffffffffffffffffffffffffffffffff1663a9059cbb33856040518363ffffffff1660e01b8152600401610bd492919061115f565b6020604051808303816000875af1158015610bf3573d6000803e3d6000fd5b505050506040513d601f19601f82011682018060405250810190610c1791906111c0565b5050505050505050505050565b60036020528060005260406000206000915090505481565b610cd884848484604051602401610c569493929190611457565b6040516020818303038152906040527fa7a87853000000000000000000000000000000000000000000000000000000007bffffffffffffffffffffffffffffffffffffffffffffffffffffffff19166020820180517bffffffffffffffffffffffffffffffffffffffffffffffffffffffff8381831617835250505050610dc3565b50505050565b600360008373ffffffffffffffffffffffffffffffffffffffff1673ffffffffffffffffffffffffffffffffffffffff168152602001908152602001600020600090558060026000828254610d33919061112b565b925050819055505050565b81600081905550806001819055505050565b80600360008473ffffffffffffffffffffffffffffffffffffffff1673ffffffffffffffffffffffffffffffffffffffff1681526020019081526020016000206000828254610d9f9190611224565b925050819055508060026000828254610db89190611224565b925050819055505050565b60008151905060006a636f6e736f6c652e6c6f679050602083016000808483855afa5050505050565b600073ffffffffffffffffffffffffffffffffffffffff82169050919050565b6000819050919050565b6000610e31610e2c610e2784610dec565b610e0c565b610dec565b9050919050565b6000610e4382610e16565b9050919050565b6000610e5582610e38565b9050919050565b610e6581610e4a565b82525050565b6000602082019050610e806000830184610e5c565b92915050565b6000819050919050565b610e9981610e86565b82525050565b6000602082019050610eb46000830184610e90565b92915050565b600080fd5b610ec881610e86565b8114610ed357600080fd5b50565b600081359050610ee581610ebf565b92915050565b60008060408385031215610f0257610f01610eba565b5b6000610f1085828601610ed6565b9250506020610f2185828601610ed6565b9150509250929050565b6000610f3682610dec565b9050919050565b610f4681610f2b565b8114610f5157600080fd5b50565b600081359050610f6381610f3d565b92915050565b60008060408385031215610f8057610f7f610eba565b5b6000610f8e85828601610f54565b9250506020610f9f85828601610ed6565b9150509250929050565b600060208284031215610fbf57610fbe610eba565b5b6000610fcd84828501610f54565b91505092915050565b610fdf81610f2b565b82525050565b6000602082019050610ffa6000830184610fd6565b92915050565b60008151905061100f81610ebf565b92915050565b60006020828403121561102b5761102a610eba565b5b600061103984828501611000565b91505092915050565b7f4e487b7100000000000000000000000000000000000000000000000000000000600052601160045260246000fd5b600061107c82610e86565b915061108783610e86565b9250817fffffffffffffffffffffffffffffffffffffffffffffffffffffffffffffffff04831182151516156110c0576110bf611042565b5b828202905092915050565b7f4e487b7100000000000000000000000000000000000000000000000000000000600052601260045260246000fd5b600061110582610e86565b915061111083610e86565b9250826111205761111f6110cb565b5b828204905092915050565b600061113682610e86565b915061114183610e86565b92508282101561115457611153611042565b5b828203905092915050565b60006040820190506111746000830185610fd6565b6111816020830184610e90565b9392505050565b60008115159050919050565b61119d81611188565b81146111a857600080fd5b50565b6000815190506111ba81611194565b92915050565b6000602082840312156111d6576111d5610eba565b5b60006111e4848285016111ab565b91505092915050565b60006060820190506112026000830186610fd6565b61120f6020830185610fd6565b61121c6040830184610e90565b949350505050565b600061122f82610e86565b915061123a83610e86565b9250827fffffffffffffffffffffffffffffffffffffffffffffffffffffffffffffffff0382111561126f5761126e611042565b5b828201905092915050565b600082825260208201905092915050565b7f5368617265732063616e2774206265207a65726f000000000000000000000000600082015250565b60006112c160148361127a565b91506112cc8261128b565b602082019050919050565b600060208201905081810360008301526112f0816112b4565b9050919050565b7f496e76616c696420546f6b656e20416464726573730000000000000000000000600082015250565b600061132d60158361127a565b9150611338826112f7565b602082019050919050565b6000602082019050818103600083015261135c81611320565b9050919050565b7f416d6f756e742073686f756c642062652067726561746572207468616e203000600082015250565b6000611399601f8361127a565b91506113a482611363565b602082019050919050565b600060208201905081810360008301526113c88161138c565b9050919050565b600081519050919050565b60005b838110156113f85780820151818401526020810190506113dd565b83811115611407576000848401525b50505050565b6000601f19601f8301169050919050565b6000611429826113cf565b611433818561127a565b93506114438185602086016113da565b61144c8161140d565b840191505092915050565b60006080820190508181036000830152611471818761141e565b90506114806020830186610e90565b61148d6040830185610e90565b61149a6060830184610e90565b9594505050505056fe526573657276652c2055736572205368617265732c20546f74616c20536861726573206f7574a264697066735822122083fdad4f490b18ea82a9caaf70bbddd4ae650736e1e7691ecfdda06a24466e2264736f6c634300080c0033",
  "linkReferences": {},
  "deployedLinkReferences": {}
}