{
  "_format": "hh-sol-artifact-1",
  "contractName": "AnyxSwapCP",
  "sourceName": "contracts/ConstantProductAMM.sol",
  "abi": [
    {
      "inputs": [
        {
          "internalType": "address",
          "name": "_tokenA",
          "type": "address"
        },
        {
          "internalType": "address",
          "name": "_tokenB",
          "type": "address"
        }
      ],
      "stateMutability": "nonpayable",
      "type": "constructor"
    },
    {
      "inputs": [
        {
          "internalType": "uint256",
          "name": "_amountA",
          "type": "uint256"
        },
        {
          "internalType": "uint256",
          "name": "_amountB",
          "type": "uint256"
        }
      ],
      "name": "addLiquidity",
      "outputs": [
        {
          "internalType": "uint256",
          "name": "shares",
          "type": "uint256"
        }
      ],
      "stateMutability": "nonpayable",
      "type": "function"
    },
    {
      "inputs": [],
      "name": "removeLiquidity",
      "outputs": [],
      "stateMutability": "nonpayable",
      "type": "function"
    },
    {
      "inputs": [],
      "name": "reserveA",
      "outputs": [
        {
          "internalType": "uint256",
          "name": "",
          "type": "uint256"
        }
      ],
      "stateMutability": "view",
      "type": "function"
    },
    {
      "inputs": [],
      "name": "reserveB",
      "outputs": [
        {
          "internalType": "uint256",
          "name": "",
          "type": "uint256"
        }
      ],
      "stateMutability": "view",
      "type": "function"
    },
    {
      "inputs": [
        {
          "internalType": "address",
          "name": "",
          "type": "address"
        }
      ],
      "name": "sharesOfIndividual",
      "outputs": [
        {
          "internalType": "uint256",
          "name": "",
          "type": "uint256"
        }
      ],
      "stateMutability": "view",
      "type": "function"
    },
    {
      "inputs": [
        {
          "internalType": "address",
          "name": "_tokenIn",
          "type": "address"
        },
        {
          "internalType": "uint256",
          "name": "_amountIn",
          "type": "uint256"
        }
      ],
      "name": "swapTokens",
      "outputs": [],
      "stateMutability": "nonpayable",
      "type": "function"
    },
    {
      "inputs": [],
      "name": "tokenA",
      "outputs": [
        {
          "internalType": "contract IERC20",
          "name": "",
          "type": "address"
        }
      ],
      "stateMutability": "view",
      "type": "function"
    },
    {
      "inputs": [],
      "name": "tokenB",
      "outputs": [
        {
          "internalType": "contract IERC20",
          "name": "",
          "type": "address"
        }
      ],
      "stateMutability": "view",
      "type": "function"
    },
    {
      "inputs": [],
      "name": "totalShares",
      "outputs": [
        {
          "internalType": "uint256",
          "name": "",
          "type": "uint256"
        }
      ],
      "stateMutability": "view",
      "type": "function"
    }
  ],
  "bytecode": "0x60c06040523480156200001157600080fd5b50604051620017b2380380620017b2833981810160405281019062000037919062000111565b8173ffffffffffffffffffffffffffffffffffffffff1660808173ffffffffffffffffffffffffffffffffffffffff16815250508073ffffffffffffffffffffffffffffffffffffffff1660a08173ffffffffffffffffffffffffffffffffffffffff1681525050505062000158565b600080fd5b600073ffffffffffffffffffffffffffffffffffffffff82169050919050565b6000620000d982620000ac565b9050919050565b620000eb81620000cc565b8114620000f757600080fd5b50565b6000815190506200010b81620000e0565b92915050565b600080604083850312156200012b576200012a620000a7565b5b60006200013b85828601620000fa565b92505060206200014e85828601620000fa565b9150509250929050565b60805160a0516115bd620001f5600039600081816101fe015281816102c2015281816104a5015281816105ee015281816108540152818161094e01528181610a7e01528181610aec0152610cfe0152600081816101b601528181610224015281816104060152818161054d015281816107ba015281816108f901528181610a2201528181610a9f01528181610acb0152610c6401526115bd6000f3fe608060405234801561001057600080fd5b50600436106100935760003560e01c80635f64b55b116100665780635f64b55b1461012257806367b9a286146101405780639cd441da1461014a578063a114398d1461017a578063dc5fa6c51461019657610093565b80630fc63d101461009857806319e36f3b146100b65780633a98ef39146100d45780635f376241146100f2575b600080fd5b6100a06101b4565b6040516100ad9190610fb7565b60405180910390f35b6100be6101d8565b6040516100cb9190610feb565b60405180910390f35b6100dc6101de565b6040516100e99190610feb565b60405180910390f35b61010c60048036038101906101079190611049565b6101e4565b6040516101199190610feb565b60405180910390f35b61012a6101fc565b6040516101379190610fb7565b60405180910390f35b610148610220565b005b610164600480360381019061015f91906110a2565b610549565b6040516101719190610feb565b60405180910390f35b610194600480360381019061018f91906110e2565b6108f7565b005b61019e610da6565b6040516101ab9190610feb565b60405180910390f35b7f000000000000000000000000000000000000000000000000000000000000000081565b60015481565b60025481565b60036020528060005260406000206000915090505481565b7f000000000000000000000000000000000000000000000000000000000000000081565b60007f000000000000000000000000000000000000000000000000000000000000000073ffffffffffffffffffffffffffffffffffffffff166370a08231306040518263ffffffff1660e01b815260040161027b9190611131565b602060405180830381865afa158015610298573d6000803e3d6000fd5b505050506040513d601f19601f820116820180604052508101906102bc9190611161565b905060007f000000000000000000000000000000000000000000000000000000000000000073ffffffffffffffffffffffffffffffffffffffff166370a08231306040518263ffffffff1660e01b81526004016103199190611131565b602060405180830381865afa158015610336573d6000803e3d6000fd5b505050506040513d601f19601f8201168201806040525081019061035a9190611161565b90506000600360003373ffffffffffffffffffffffffffffffffffffffff1673ffffffffffffffffffffffffffffffffffffffff168152602001908152602001600020549050600060025484836103b191906111bd565b6103bb9190611246565b9050600060025484846103ce91906111bd565b6103d89190611246565b90506103e43384610dac565b61040482866103f39190611277565b82866103ff9190611277565b610e1f565b7f000000000000000000000000000000000000000000000000000000000000000073ffffffffffffffffffffffffffffffffffffffff1663a9059cbb33846040518363ffffffff1660e01b815260040161045f9291906112ab565b6020604051808303816000875af115801561047e573d6000803e3d6000fd5b505050506040513d601f19601f820116820180604052508101906104a2919061130c565b507f000000000000000000000000000000000000000000000000000000000000000073ffffffffffffffffffffffffffffffffffffffff1663a9059cbb33836040518363ffffffff1660e01b81526004016104fe9291906112ab565b6020604051808303816000875af115801561051d573d6000803e3d6000fd5b505050506040513d601f19601f82011682018060405250810190610541919061130c565b505050505050565b60007f000000000000000000000000000000000000000000000000000000000000000073ffffffffffffffffffffffffffffffffffffffff166323b872dd3330866040518463ffffffff1660e01b81526004016105a893929190611339565b6020604051808303816000875af11580156105c7573d6000803e3d6000fd5b505050506040513d601f19601f820116820180604052508101906105eb919061130c565b507f000000000000000000000000000000000000000000000000000000000000000073ffffffffffffffffffffffffffffffffffffffff166323b872dd3330856040518463ffffffff1660e01b815260040161064993929190611339565b6020604051808303816000875af1158015610668573d6000803e3d6000fd5b505050506040513d601f19601f8201168201806040525081019061068c919061130c565b5060008054118061069f57506000600154115b156107015781836106b09190611246565b6001546000546106c09190611246565b14610700576040517f08c379a00000000000000000000000000000000000000000000000000000000081526004016106f7906113cd565b60405180910390fd5b5b6000600254141561072757610720828461071b91906111bd565b610e31565b9050610768565b6107656000546002548561073b91906111bd565b6107459190611246565b6001546002548561075691906111bd565b6107609190611246565b610eab565b90505b600081116107ab576040517f08c379a00000000000000000000000000000000000000000000000000000000081526004016107a290611439565b60405180910390fd5b6107b53382610ec5565b6108f17f000000000000000000000000000000000000000000000000000000000000000073ffffffffffffffffffffffffffffffffffffffff166370a08231306040518263ffffffff1660e01b81526004016108119190611131565b602060405180830381865afa15801561082e573d6000803e3d6000fd5b505050506040513d601f19601f820116820180604052508101906108529190611161565b7f000000000000000000000000000000000000000000000000000000000000000073ffffffffffffffffffffffffffffffffffffffff166370a08231306040518263ffffffff1660e01b81526004016108ab9190611131565b602060405180830381865afa1580156108c8573d6000803e3d6000fd5b505050506040513d601f19601f820116820180604052508101906108ec9190611161565b610e1f565b92915050565b7f000000000000000000000000000000000000000000000000000000000000000073ffffffffffffffffffffffffffffffffffffffff168273ffffffffffffffffffffffffffffffffffffffff16148061099c57507f000000000000000000000000000000000000000000000000000000000000000073ffffffffffffffffffffffffffffffffffffffff168273ffffffffffffffffffffffffffffffffffffffff16145b6109db576040517f08c379a00000000000000000000000000000000000000000000000000000000081526004016109d2906114a5565b60405180910390fd5b60008111610a1e576040517f08c379a0000000000000000000000000000000000000000000000000000000008152600401610a1590611511565b60405180910390fd5b60007f000000000000000000000000000000000000000000000000000000000000000073ffffffffffffffffffffffffffffffffffffffff168373ffffffffffffffffffffffffffffffffffffffff1614905060008060008084610ac9577f00000000000000000000000000000000000000000000000000000000000000007f0000000000000000000000000000000000000000000000000000000000000000600154600054610b12565b7f00000000000000000000000000000000000000000000000000000000000000007f00000000000000000000000000000000000000000000000000000000000000006000546001545b93509350935093508373ffffffffffffffffffffffffffffffffffffffff166323b872dd3330896040518463ffffffff1660e01b8152600401610b5793929190611339565b6020604051808303816000875af1158015610b76573d6000803e3d6000fd5b505050506040513d601f19601f82011682018060405250810190610b9a919061130c565b5060006103e86103e588610bae91906111bd565b610bb89190611246565b905060008184610bc89190611531565b8284610bd491906111bd565b610bde9190611246565b90508473ffffffffffffffffffffffffffffffffffffffff1663a9059cbb33836040518363ffffffff1660e01b8152600401610c1b9291906112ab565b6020604051808303816000875af1158015610c3a573d6000803e3d6000fd5b505050506040513d601f19601f82011682018060405250810190610c5e919061130c565b50610d9b7f000000000000000000000000000000000000000000000000000000000000000073ffffffffffffffffffffffffffffffffffffffff166370a08231306040518263ffffffff1660e01b8152600401610cbb9190611131565b602060405180830381865afa158015610cd8573d6000803e3d6000fd5b505050506040513d601f19601f82011682018060405250810190610cfc9190611161565b7f000000000000000000000000000000000000000000000000000000000000000073ffffffffffffffffffffffffffffffffffffffff166370a08231306040518263ffffffff1660e01b8152600401610d559190611131565b602060405180830381865afa158015610d72573d6000803e3d6000fd5b505050506040513d601f19601f82011682018060405250810190610d969190611161565b610e1f565b505050505050505050565b60005481565b80600360008473ffffffffffffffffffffffffffffffffffffffff1673ffffffffffffffffffffffffffffffffffffffff1681526020019081526020016000206000828254610dfb9190611277565b925050819055508060026000828254610e149190611277565b925050819055505050565b81600081905550806001819055505050565b60006003821115610e985781905060006001600284610e509190611246565b610e5a9190611531565b90505b81811015610e92578091506002818285610e779190611246565b610e819190611531565b610e8b9190611246565b9050610e5d565b50610ea6565b60008214610ea557600190505b5b919050565b600081831115610ebb5781610ebd565b825b905092915050565b80600360008473ffffffffffffffffffffffffffffffffffffffff1673ffffffffffffffffffffffffffffffffffffffff1681526020019081526020016000206000828254610f149190611531565b925050819055508060026000828254610f2d9190611531565b925050819055505050565b600073ffffffffffffffffffffffffffffffffffffffff82169050919050565b6000819050919050565b6000610f7d610f78610f7384610f38565b610f58565b610f38565b9050919050565b6000610f8f82610f62565b9050919050565b6000610fa182610f84565b9050919050565b610fb181610f96565b82525050565b6000602082019050610fcc6000830184610fa8565b92915050565b6000819050919050565b610fe581610fd2565b82525050565b60006020820190506110006000830184610fdc565b92915050565b600080fd5b600061101682610f38565b9050919050565b6110268161100b565b811461103157600080fd5b50565b6000813590506110438161101d565b92915050565b60006020828403121561105f5761105e611006565b5b600061106d84828501611034565b91505092915050565b61107f81610fd2565b811461108a57600080fd5b50565b60008135905061109c81611076565b92915050565b600080604083850312156110b9576110b8611006565b5b60006110c78582860161108d565b92505060206110d88582860161108d565b9150509250929050565b600080604083850312156110f9576110f8611006565b5b600061110785828601611034565b92505060206111188582860161108d565b9150509250929050565b61112b8161100b565b82525050565b60006020820190506111466000830184611122565b92915050565b60008151905061115b81611076565b92915050565b60006020828403121561117757611176611006565b5b60006111858482850161114c565b91505092915050565b7f4e487b7100000000000000000000000000000000000000000000000000000000600052601160045260246000fd5b60006111c882610fd2565b91506111d383610fd2565b9250817fffffffffffffffffffffffffffffffffffffffffffffffffffffffffffffffff048311821515161561120c5761120b61118e565b5b828202905092915050565b7f4e487b7100000000000000000000000000000000000000000000000000000000600052601260045260246000fd5b600061125182610fd2565b915061125c83610fd2565b92508261126c5761126b611217565b5b828204905092915050565b600061128282610fd2565b915061128d83610fd2565b9250828210156112a05761129f61118e565b5b828203905092915050565b60006040820190506112c06000830185611122565b6112cd6020830184610fdc565b9392505050565b60008115159050919050565b6112e9816112d4565b81146112f457600080fd5b50565b600081519050611306816112e0565b92915050565b60006020828403121561132257611321611006565b5b6000611330848285016112f7565b91505092915050565b600060608201905061134e6000830186611122565b61135b6020830185611122565b6113686040830184610fdc565b949350505050565b600082825260208201905092915050565b7f64792f647820213d20592f580000000000000000000000000000000000000000600082015250565b60006113b7600c83611370565b91506113c282611381565b602082019050919050565b600060208201905081810360008301526113e6816113aa565b9050919050565b7f536861726573203d203000000000000000000000000000000000000000000000600082015250565b6000611423600a83611370565b915061142e826113ed565b602082019050919050565b6000602082019050818103600083015261145281611416565b9050919050565b7f496e76616c696420546f6b656e20416464726573730000000000000000000000600082015250565b600061148f601583611370565b915061149a82611459565b602082019050919050565b600060208201905081810360008301526114be81611482565b9050919050565b7f416d6f756e742073686f756c642062652067726561746572207468616e203000600082015250565b60006114fb601f83611370565b9150611506826114c5565b602082019050919050565b6000602082019050818103600083015261152a816114ee565b9050919050565b600061153c82610fd2565b915061154783610fd2565b9250827fffffffffffffffffffffffffffffffffffffffffffffffffffffffffffffffff0382111561157c5761157b61118e565b5b82820190509291505056fea264697066735822122066f025a4da93bd1f93c6fa880645d681b11789e46beba1b17713117a868f328164736f6c634300080c0033",
  "linkReferences": {},
  "deployedLinkReferences": {}
}